{
  "contractName": "ERC165",
  "abi": [
    {
      "inputs": [],
      "stateMutability": "nonpayable",
      "type": "constructor"
    },
    {
      "inputs": [
        {
          "internalType": "bytes4",
          "name": "interfaceId",
          "type": "bytes4"
        }
      ],
      "name": "supportsInterface",
      "outputs": [
        {
          "internalType": "bool",
          "name": "",
          "type": "bool"
        }
      ],
      "stateMutability": "view",
      "type": "function"
    },
    {
      "inputs": [],
      "name": "calcFingerPrint",
      "outputs": [
        {
          "internalType": "bytes4",
          "name": "",
          "type": "bytes4"
        }
      ],
      "stateMutability": "pure",
      "type": "function"
    },
    {
      "inputs": [
        {
          "internalType": "bytes4",
          "name": "interfaceId",
          "type": "bytes4"
        }
      ],
      "name": "_registerInterface",
      "outputs": [],
      "stateMutability": "nonpayable",
      "type": "function"
    }
  ],
  "bytecode": "0x608060405234801561001057600080fd5b506100407f01ffc9a7a5cef8baa21ed3c5c0d7e23accb804b619e9333b597f47a0d84076e261004560201b60201c565b610196565b63ffffffff60e01b817bffffffffffffffffffffffffffffffffffffffffffffffffffffffff1916036100ad576040517f08c379a00000000000000000000000000000000000000000000000000000000081526004016100a490610176565b60405180910390fd5b6001600080837bffffffffffffffffffffffffffffffffffffffffffffffffffffffff19167bffffffffffffffffffffffffffffffffffffffffffffffffffffffff1916815260200190815260200160002060006101000a81548160ff02191690831515021790555050565b600082825260208201905092915050565b7f4552433136353a20496e76616c696420496e7465726661636500000000000000600082015250565b6000610160601983610119565b915061016b8261012a565b602082019050919050565b6000602082019050818103600083015261018f81610153565b9050919050565b6103b0806101a56000396000f3fe608060405234801561001057600080fd5b50600436106100415760003560e01c806301ffc9a714610046578063068417d9146100765780638b1ccaee14610092575b600080fd5b610060600480360381019061005b9190610270565b6100b0565b60405161006d91906102b8565b60405180910390f35b610090600480360381019061008b9190610270565b610117565b005b61009a6101eb565b6040516100a791906102e2565b60405180910390f35b6000806000837bffffffffffffffffffffffffffffffffffffffffffffffffffffffff19167bffffffffffffffffffffffffffffffffffffffffffffffffffffffff1916815260200190815260200160002060009054906101000a900460ff169050919050565b63ffffffff60e01b817bffffffffffffffffffffffffffffffffffffffffffffffffffffffff19160361017f576040517f08c379a00000000000000000000000000000000000000000000000000000000081526004016101769061035a565b60405180910390fd5b6001600080837bffffffffffffffffffffffffffffffffffffffffffffffffffffffff19167bffffffffffffffffffffffffffffffffffffffffffffffffffffffff1916815260200190815260200160002060006101000a81548160ff02191690831515021790555050565b60007f01ffc9a7a5cef8baa21ed3c5c0d7e23accb804b619e9333b597f47a0d84076e2905090565b600080fd5b60007fffffffff0000000000000000000000000000000000000000000000000000000082169050919050565b61024d81610218565b811461025857600080fd5b50565b60008135905061026a81610244565b92915050565b60006020828403121561028657610285610213565b5b60006102948482850161025b565b91505092915050565b60008115159050919050565b6102b28161029d565b82525050565b60006020820190506102cd60008301846102a9565b92915050565b6102dc81610218565b82525050565b60006020820190506102f760008301846102d3565b92915050565b600082825260208201905092915050565b7f4552433136353a20496e76616c696420496e7465726661636500000000000000600082015250565b60006103446019836102fd565b915061034f8261030e565b602082019050919050565b6000602082019050818103600083015261037381610337565b905091905056fea2646970667358221220631e4871e42d27918746d1e275b0d4ba53b717199f14a71fbf2c55730626fa6664736f6c634300080f0033",
  "immutableReferences": {},
  "source": "// SPDX-License-Identifier: MIT\r\npragma solidity ^0.8.0;\r\n\r\nimport './interfaces/IERC165.sol';\r\n\r\ncontract ERC165 is IERC165\r\n{\r\n    //hash table to keep track of contract fingerprint data of byte function conversions\r\n    mapping(bytes4 => bool) private _supportedInterfaces;\r\n\r\n    function supportsInterface(bytes4 interfaceId) public override view returns(bool)\r\n    {\r\n        return _supportedInterfaces[interfaceId];\r\n    }\r\n\r\n    // function balanceOf(address _owner) external override view returns(uint256)\r\n    // {\r\n    //     return 5;\r\n    // }\r\n\r\n\r\n    //function for byte calculation of interface \r\n    function calcFingerPrint() public pure  returns(bytes4)\r\n    {\r\n        // return bytes4(keccak256('supportsInterface(bytes4)')^keccak256('balanceOf(bytes4)'));\r\n        //function supports interface value : 0x01ffc9a7\r\n\r\n        return bytes4(keccak256('supportsInterface(bytes4)'));\r\n    }\r\n\r\n    function _registerInterface(bytes4 interfaceId) public\r\n    {\r\n        require(interfaceId!=0xffffffff,\"ERC165: Invalid Interface\");\r\n        _supportedInterfaces[interfaceId]=true;\r\n    }\r\n    constructor()\r\n    {\r\n        // _registerInterface(0x01ffc9a7);\r\n        _registerInterface(bytes4(keccak256('supportsInterface(bytes4)')));\r\n    }\r\n}",
  "sourcePath": "C:\\Users\\Sarthak\\Documents\\Web Development\\NFT Marketplace\\nft-marketplace\\contracts\\ERC165.sol",
  "compiler": {
    "name": "solc",
    "version": "0.8.15+commit.e14f2714.Emscripten.clang"
  },
  "schemaVersion": "3.4.7",
  "updatedAt": "2022-07-25T14:08:34.367Z",
  "devdoc": {
    "kind": "dev",
    "methods": {},
    "version": 1
  },
  "userdoc": {
    "kind": "user",
    "methods": {},
    "version": 1
  }
}