{
  "contractName": "ERC721",
  "abi": [
    {
      "inputs": [],
      "stateMutability": "nonpayable",
      "type": "constructor"
    },
    {
      "anonymous": false,
      "inputs": [
        {
          "indexed": true,
          "internalType": "address",
          "name": "_owner",
          "type": "address"
        },
        {
          "indexed": true,
          "internalType": "address",
          "name": "_approved",
          "type": "address"
        },
        {
          "indexed": true,
          "internalType": "uint256",
          "name": "_tokenId",
          "type": "uint256"
        }
      ],
      "name": "Approval",
      "type": "event"
    },
    {
      "anonymous": false,
      "inputs": [
        {
          "indexed": true,
          "internalType": "address",
          "name": "_from",
          "type": "address"
        },
        {
          "indexed": true,
          "internalType": "address",
          "name": "_to",
          "type": "address"
        },
        {
          "indexed": true,
          "internalType": "uint256",
          "name": "_tokenId",
          "type": "uint256"
        }
      ],
      "name": "Transfer",
      "type": "event"
    },
    {
      "inputs": [
        {
          "internalType": "bytes4",
          "name": "interfaceId",
          "type": "bytes4"
        }
      ],
      "name": "_registerInterface",
      "outputs": [],
      "stateMutability": "nonpayable",
      "type": "function"
    },
    {
      "inputs": [],
      "name": "calcFingerPrint",
      "outputs": [
        {
          "internalType": "bytes4",
          "name": "",
          "type": "bytes4"
        }
      ],
      "stateMutability": "pure",
      "type": "function"
    },
    {
      "inputs": [
        {
          "internalType": "bytes4",
          "name": "interfaceId",
          "type": "bytes4"
        }
      ],
      "name": "supportsInterface",
      "outputs": [
        {
          "internalType": "bool",
          "name": "",
          "type": "bool"
        }
      ],
      "stateMutability": "view",
      "type": "function"
    },
    {
      "inputs": [
        {
          "internalType": "address",
          "name": "_owner",
          "type": "address"
        }
      ],
      "name": "balanceOf",
      "outputs": [
        {
          "internalType": "uint256",
          "name": "",
          "type": "uint256"
        }
      ],
      "stateMutability": "view",
      "type": "function"
    },
    {
      "inputs": [
        {
          "internalType": "uint256",
          "name": "_tokenId",
          "type": "uint256"
        }
      ],
      "name": "ownerOf",
      "outputs": [
        {
          "internalType": "address",
          "name": "",
          "type": "address"
        }
      ],
      "stateMutability": "view",
      "type": "function"
    },
    {
      "inputs": [
        {
          "internalType": "address",
          "name": "_from",
          "type": "address"
        },
        {
          "internalType": "address",
          "name": "_to",
          "type": "address"
        },
        {
          "internalType": "uint256",
          "name": "_tokenId",
          "type": "uint256"
        }
      ],
      "name": "transferFrom",
      "outputs": [],
      "stateMutability": "nonpayable",
      "type": "function"
    },
    {
      "inputs": [
        {
          "internalType": "address",
          "name": "_to",
          "type": "address"
        },
        {
          "internalType": "uint256",
          "name": "tokenId",
          "type": "uint256"
        }
      ],
      "name": "approve",
      "outputs": [],
      "stateMutability": "nonpayable",
      "type": "function"
    }
  ],
  "bytecode": "0x60806040523480156200001157600080fd5b50620000437f01ffc9a7a5cef8baa21ed3c5c0d7e23accb804b619e9333b597f47a0d84076e2620000e060201b60201c565b620000da7f8c51fd5fcf1f456ec4eb0f32f68d83471264fe082fac12bcbfd2fa4be9eed6c77f22c82707ba960a14c7592ffb6b8cfaa073fed0048a84cc7fa41f6b5bd8e7f2e47f7c1c4246af5561407c5193d0f67e68e23182a8f219fba25cf69514dfbf96f61c7f8a7e378434598edc36d108689a030cbc9d7d465de4f74c71bae1028eed6a881b181818620000e060201b60201c565b6200023a565b63ffffffff60e01b817bffffffffffffffffffffffffffffffffffffffffffffffffffffffff1916036200014b576040517f08c379a0000000000000000000000000000000000000000000000000000000008152600401620001429062000218565b60405180910390fd5b6001600080837bffffffffffffffffffffffffffffffffffffffffffffffffffffffff19167bffffffffffffffffffffffffffffffffffffffffffffffffffffffff1916815260200190815260200160002060006101000a81548160ff02191690831515021790555050565b600082825260208201905092915050565b7f4552433136353a20496e76616c696420496e7465726661636500000000000000600082015250565b600062000200601983620001b7565b91506200020d82620001c8565b602082019050919050565b600060208201905081810360008301526200023381620001f1565b9050919050565b611156806200024a6000396000f3fe608060405234801561001057600080fd5b506004361061007d5760003560e01c806323b872dd1161005b57806323b872dd146100ea5780636352211e1461010657806370a08231146101365780638b1ccaee146101665761007d565b806301ffc9a714610082578063068417d9146100b2578063095ea7b3146100ce575b600080fd5b61009c600480360381019061009791906109b0565b610184565b6040516100a991906109f8565b60405180910390f35b6100cc60048036038101906100c791906109b0565b6101eb565b005b6100e860048036038101906100e39190610aa7565b6102bf565b005b61010460048036038101906100ff9190610ae7565b61045a565b005b610120600480360381019061011b9190610b3a565b61047d565b60405161012d9190610b76565b60405180910390f35b610150600480360381019061014b9190610b91565b61052e565b60405161015d9190610bcd565b60405180910390f35b61016e6105e5565b60405161017b9190610bf7565b60405180910390f35b6000806000837bffffffffffffffffffffffffffffffffffffffffffffffffffffffff19167bffffffffffffffffffffffffffffffffffffffffffffffffffffffff1916815260200190815260200160002060009054906101000a900460ff169050919050565b63ffffffff60e01b817bffffffffffffffffffffffffffffffffffffffffffffffffffffffff191603610253576040517f08c379a000000000000000000000000000000000000000000000000000000000815260040161024a90610c6f565b60405180910390fd5b6001600080837bffffffffffffffffffffffffffffffffffffffffffffffffffffffff19167bffffffffffffffffffffffffffffffffffffffffffffffffffffffff1916815260200190815260200160002060006101000a81548160ff02191690831515021790555050565b60006102ca8261047d565b90508073ffffffffffffffffffffffffffffffffffffffff168373ffffffffffffffffffffffffffffffffffffffff160361033a576040517f08c379a000000000000000000000000000000000000000000000000000000000815260040161033190610d01565b60405180910390fd5b8073ffffffffffffffffffffffffffffffffffffffff163373ffffffffffffffffffffffffffffffffffffffff16146103a8576040517f08c379a000000000000000000000000000000000000000000000000000000000815260040161039f90610d93565b60405180910390fd5b826003600084815260200190815260200160002060006101000a81548173ffffffffffffffffffffffffffffffffffffffff021916908373ffffffffffffffffffffffffffffffffffffffff160217905550818373ffffffffffffffffffffffffffffffffffffffff168273ffffffffffffffffffffffffffffffffffffffff167f8c5be1e5ebec7d5bd14f71427d1e84f3dd0314c0f7b2291e5b200ac8c7c3b92560405160405180910390a4505050565b610464338261060d565b61046d57600080fd5b61047883838361069c565b505050565b6000806001600084815260200190815260200160002060009054906101000a900473ffffffffffffffffffffffffffffffffffffffff169050600073ffffffffffffffffffffffffffffffffffffffff168173ffffffffffffffffffffffffffffffffffffffff1603610525576040517f08c379a000000000000000000000000000000000000000000000000000000000815260040161051c90610e25565b60405180910390fd5b80915050919050565b60008073ffffffffffffffffffffffffffffffffffffffff168273ffffffffffffffffffffffffffffffffffffffff160361059e576040517f08c379a000000000000000000000000000000000000000000000000000000000815260040161059590610eb7565b60405180910390fd5b600260008373ffffffffffffffffffffffffffffffffffffffff1673ffffffffffffffffffffffffffffffffffffffff168152602001908152602001600020549050919050565b60007f01ffc9a7a5cef8baa21ed3c5c0d7e23accb804b619e9333b597f47a0d84076e2905090565b6000610618826108e1565b610657576040517f08c379a000000000000000000000000000000000000000000000000000000000815260040161064e90610f23565b60405180910390fd5b60006106628361047d565b90508073ffffffffffffffffffffffffffffffffffffffff168473ffffffffffffffffffffffffffffffffffffffff161491505092915050565b600073ffffffffffffffffffffffffffffffffffffffff168273ffffffffffffffffffffffffffffffffffffffff160361070b576040517f08c379a000000000000000000000000000000000000000000000000000000000815260040161070290610fb5565b60405180910390fd5b8273ffffffffffffffffffffffffffffffffffffffff1661072b8261047d565b73ffffffffffffffffffffffffffffffffffffffff1614610781576040517f08c379a000000000000000000000000000000000000000000000000000000000815260040161077890611047565b60405180910390fd5b6001600260008573ffffffffffffffffffffffffffffffffffffffff1673ffffffffffffffffffffffffffffffffffffffff16815260200190815260200160002060008282546107d19190611096565b925050819055506001600260008473ffffffffffffffffffffffffffffffffffffffff1673ffffffffffffffffffffffffffffffffffffffff168152602001908152602001600020600082825461082891906110ca565b92505081905550816001600083815260200190815260200160002060006101000a81548173ffffffffffffffffffffffffffffffffffffffff021916908373ffffffffffffffffffffffffffffffffffffffff160217905550808273ffffffffffffffffffffffffffffffffffffffff168473ffffffffffffffffffffffffffffffffffffffff167fddf252ad1be2c89b69c2b068fc378daa952ba7f163c4a11628f55a4df523b3ef60405160405180910390a4505050565b6000806001600084815260200190815260200160002060009054906101000a900473ffffffffffffffffffffffffffffffffffffffff169050600073ffffffffffffffffffffffffffffffffffffffff168173ffffffffffffffffffffffffffffffffffffffff161415915050919050565b600080fd5b60007fffffffff0000000000000000000000000000000000000000000000000000000082169050919050565b61098d81610958565b811461099857600080fd5b50565b6000813590506109aa81610984565b92915050565b6000602082840312156109c6576109c5610953565b5b60006109d48482850161099b565b91505092915050565b60008115159050919050565b6109f2816109dd565b82525050565b6000602082019050610a0d60008301846109e9565b92915050565b600073ffffffffffffffffffffffffffffffffffffffff82169050919050565b6000610a3e82610a13565b9050919050565b610a4e81610a33565b8114610a5957600080fd5b50565b600081359050610a6b81610a45565b92915050565b6000819050919050565b610a8481610a71565b8114610a8f57600080fd5b50565b600081359050610aa181610a7b565b92915050565b60008060408385031215610abe57610abd610953565b5b6000610acc85828601610a5c565b9250506020610add85828601610a92565b9150509250929050565b600080600060608486031215610b0057610aff610953565b5b6000610b0e86828701610a5c565b9350506020610b1f86828701610a5c565b9250506040610b3086828701610a92565b9150509250925092565b600060208284031215610b5057610b4f610953565b5b6000610b5e84828501610a92565b91505092915050565b610b7081610a33565b82525050565b6000602082019050610b8b6000830184610b67565b92915050565b600060208284031215610ba757610ba6610953565b5b6000610bb584828501610a5c565b91505092915050565b610bc781610a71565b82525050565b6000602082019050610be26000830184610bbe565b92915050565b610bf181610958565b82525050565b6000602082019050610c0c6000830184610be8565b92915050565b600082825260208201905092915050565b7f4552433136353a20496e76616c696420496e7465726661636500000000000000600082015250565b6000610c59601983610c12565b9150610c6482610c23565b602082019050919050565b60006020820190508181036000830152610c8881610c4c565b9050919050565b7f4572726f72202d20617070726f76616c20746f2063757272656e74206f776e6560008201527f7200000000000000000000000000000000000000000000000000000000000000602082015250565b6000610ceb602183610c12565b9150610cf682610c8f565b604082019050919050565b60006020820190508181036000830152610d1a81610cde565b9050919050565b7f43757272656e742063616c6c6572206973206e6f7420746865206f776e65722060008201527f6f662074686520746f6b656e0000000000000000000000000000000000000000602082015250565b6000610d7d602c83610c12565b9150610d8882610d21565b604082019050919050565b60006020820190508181036000830152610dac81610d70565b9050919050565b7f4f776e657220646f6573206e6f7420657869737420666f72207468652067697660008201527f656e20746f6b656e204944000000000000000000000000000000000000000000602082015250565b6000610e0f602b83610c12565b9150610e1a82610db3565b604082019050919050565b60006020820190508181036000830152610e3e81610e02565b9050919050565b7f696e76616c6964206f776e6572206164647265737320666f7220746f6b656e2060008201527f7175657279000000000000000000000000000000000000000000000000000000602082015250565b6000610ea1602583610c12565b9150610eac82610e45565b604082019050919050565b60006020820190508181036000830152610ed081610e94565b9050919050565b7f746f6b656e20646f6573206e6f74206578697374000000000000000000000000600082015250565b6000610f0d601483610c12565b9150610f1882610ed7565b602082019050919050565b60006020820190508181036000830152610f3c81610f00565b9050919050565b7f4572726f72202d20455243373231205472616e7366657220746f20746865207a60008201527f65726f2061646472657373000000000000000000000000000000000000000000602082015250565b6000610f9f602b83610c12565b9150610faa82610f43565b604082019050919050565b60006020820190508181036000830152610fce81610f92565b9050919050565b7f547279696e6720746f207472616e73666572206120746f6b656e20746865206160008201527f64647265737320646f6573206e6f74206f776e21000000000000000000000000602082015250565b6000611031603483610c12565b915061103c82610fd5565b604082019050919050565b6000602082019050818103600083015261106081611024565b9050919050565b7f4e487b7100000000000000000000000000000000000000000000000000000000600052601160045260246000fd5b60006110a182610a71565b91506110ac83610a71565b9250828210156110bf576110be611067565b5b828203905092915050565b60006110d582610a71565b91506110e083610a71565b9250827fffffffffffffffffffffffffffffffffffffffffffffffffffffffffffffffff0382111561111557611114611067565b5b82820190509291505056fea2646970667358221220f8cd5f1b58fdc46d48a0e238dd00a8246e247c931ffbad1eb12e5d0d413d531564736f6c634300080f0033",
  "immutableReferences": {},
  "source": "// SPDX-License-Identifier: MIT\r\npragma solidity ^0.8.0;\r\n\r\nimport './ERC165.sol';\r\nimport './interfaces/IERC721.sol';\r\ncontract ERC721 is ERC165,IERC721\r\n{\r\n    // event Transfer(address indexed from, address indexed to, uint256 indexed tokenId);\r\n    // event Approval(address indexed owner, address indexed approved, uint256 indexed tokenId);\r\n\r\n    //mapping token from id to owner\r\n    mapping(uint256 => address ) private _tokenOwner;\r\n\r\n    //mapping from owner to number of owned tokens\r\n    mapping(address => uint256) private _ownedTokensCount; \r\n\r\n    // Mapping from token id to approved addresses\r\n    mapping(uint256 => address) private _tokenApprovals; \r\n    mapping(bytes4 => bool) private _supportedInterfaces;\r\n    constructor()\r\n    {\r\n        _registerInterface(bytes4(keccak256('balanceOf(bytes4)')^\r\n        keccak256('ownerOf(butes4)')^\r\n        keccak256('transferFrom(bytes4)')^\r\n        keccak256('approve(bytes4)')\r\n        ));\r\n\r\n        ////function supports interface value :  0x1e895acb\r\n    }\r\n    \r\n\r\n    function balanceOf(address _owner) public override view returns(uint256)\r\n    {\r\n        require(_owner != address(0), \"invalid owner address for token query\");\r\n        return _ownedTokensCount[_owner];\r\n    }\r\n\r\n    function ownerOf(uint256 _tokenId) public override view returns(address)\r\n    {\r\n        address owner = _tokenOwner[_tokenId];\r\n        require(owner!=address(0), \"Owner does not exist for the given token ID\");\r\n        return owner;\r\n    }\r\n\r\n    function _exists(uint256 tokenId) internal view returns (bool)\r\n    {\r\n        address owner = _tokenOwner[tokenId];\r\n        return owner!=address(0);\r\n    }\r\n\r\n    function _mint(address to, uint256 tokenId) internal virtual\r\n    {\r\n        require(to!= address(0),\"ERC721: mint to address 0 is not allowed\");\r\n        require(!_exists(tokenId),\"ERC721: token already exists\");\r\n        _tokenOwner[tokenId] = to;\r\n        _ownedTokensCount[to]+=1;\r\n\r\n        emit Transfer(address(0), to, tokenId);\r\n    }\r\n\r\n    function _transferFrom(address _from, address _to, uint256 _tokenId) internal {\r\n        require(_to != address(0), 'Error - ERC721 Transfer to the zero address');\r\n        require(ownerOf(_tokenId) == _from, 'Trying to transfer a token the address does not own!');\r\n\r\n        _ownedTokensCount[_from]-=1;\r\n        _ownedTokensCount[_to]+=1;\r\n\r\n        _tokenOwner[_tokenId] = _to;\r\n\r\n        emit Transfer(_from, _to, _tokenId);\r\n    }\r\n\r\n    function transferFrom(address _from, address _to, uint256 _tokenId)  public override  {\r\n        require(isApprovedOrOwner(msg.sender, _tokenId));\r\n        _transferFrom(_from, _to, _tokenId);\r\n\r\n    }\r\n\r\n    // 1. require that the person approving is the owner\r\n    // 2. we are approving an address to a token (tokenId)\r\n    // 3. require that we cant approve sending tokens of the owner to the owner (current caller)\r\n    // 4. update the map of the approval addresses\r\n\r\n    function approve(address _to, uint256 tokenId) public override {\r\n        address owner = ownerOf(tokenId);\r\n        require(_to != owner, 'Error - approval to current owner');\r\n        require(msg.sender == owner, 'Current caller is not the owner of the token');\r\n        _tokenApprovals[tokenId] = _to;\r\n        emit Approval(owner, _to, tokenId);\r\n    } \r\n\r\n    function isApprovedOrOwner(address spender, uint256 tokenId) internal view returns(bool) {\r\n        require(_exists(tokenId), 'token does not exist');\r\n        address owner = ownerOf(tokenId);\r\n        return(spender == owner); \r\n    }\r\n}",
  "sourcePath": "C:\\Users\\Sarthak\\Documents\\Web Development\\NFT Marketplace\\nft-marketplace\\contracts\\ERC721.sol",
  "compiler": {
    "name": "solc",
    "version": "0.8.15+commit.e14f2714.Emscripten.clang"
  },
  "schemaVersion": "3.4.7",
  "updatedAt": "2022-07-25T14:08:34.377Z",
  "devdoc": {
    "kind": "dev",
    "methods": {
      "balanceOf(address)": {
        "details": "NFTs assigned to the zero address are considered invalid, and this  function throws for queries about the zero address.",
        "params": {
          "_owner": "An address for whom to query the balance"
        },
        "returns": {
          "_0": "The number of NFTs owned by `_owner`, possibly zero"
        }
      },
      "ownerOf(uint256)": {
        "details": "NFTs assigned to zero address are considered invalid, and queries  about them do throw.",
        "params": {
          "_tokenId": "The identifier for an NFT"
        },
        "returns": {
          "_0": "The address of the owner of the NFT"
        }
      },
      "transferFrom(address,address,uint256)": {
        "details": "Throws unless `msg.sender` is the current owner, an authorized  operator, or the approved address for this NFT. Throws if `_from` is  not the current owner. Throws if `_to` is the zero address. Throws if  `_tokenId` is not a valid NFT.",
        "params": {
          "_from": "The current owner of the NFT",
          "_to": "The new owner",
          "_tokenId": "The NFT to transfer"
        }
      }
    },
    "version": 1
  },
  "userdoc": {
    "kind": "user",
    "methods": {
      "balanceOf(address)": {
        "notice": "Count all NFTs assigned to an owner"
      },
      "ownerOf(uint256)": {
        "notice": "Find the owner of an NFT"
      },
      "transferFrom(address,address,uint256)": {
        "notice": "Transfer ownership of an NFT -- THE CALLER IS RESPONSIBLE  TO CONFIRM THAT `_to` IS CAPABLE OF RECEIVING NFTS OR ELSE  THEY MAY BE PERMANENTLY LOST"
      }
    },
    "version": 1
  }
}