{
  "contractName": "ERC721",
  "abi": [
    {
      "anonymous": false,
      "inputs": [
        {
          "indexed": true,
          "internalType": "address",
          "name": "from",
          "type": "address"
        },
        {
          "indexed": true,
          "internalType": "address",
          "name": "to",
          "type": "address"
        },
        {
          "indexed": true,
          "internalType": "uint256",
          "name": "tokenId",
          "type": "uint256"
        }
      ],
      "name": "Transfer",
      "type": "event"
    },
    {
      "inputs": [
        {
          "internalType": "address",
          "name": "_owner",
          "type": "address"
        }
      ],
      "name": "balanceOf",
      "outputs": [
        {
          "internalType": "uint256",
          "name": "",
          "type": "uint256"
        }
      ],
      "stateMutability": "view",
      "type": "function"
    },
    {
      "inputs": [
        {
          "internalType": "uint256",
          "name": "_tokenId",
          "type": "uint256"
        }
      ],
      "name": "ownerOf",
      "outputs": [
        {
          "internalType": "address",
          "name": "",
          "type": "address"
        }
      ],
      "stateMutability": "view",
      "type": "function"
    }
  ],
  "bytecode": "0x608060405234801561001057600080fd5b506104b4806100206000396000f3fe608060405234801561001057600080fd5b50600436106100365760003560e01c80636352211e1461003b57806370a082311461006b575b600080fd5b6100556004803603810190610050919061023d565b61009b565b60405161006291906102ab565b60405180910390f35b610085600480360381019061008091906102f2565b61014b565b604051610092919061032e565b60405180910390f35b60008060008084815260200190815260200160002060009054906101000a900473ffffffffffffffffffffffffffffffffffffffff169050600073ffffffffffffffffffffffffffffffffffffffff168173ffffffffffffffffffffffffffffffffffffffff1603610142576040517f08c379a0000000000000000000000000000000000000000000000000000000008152600401610139906103cc565b60405180910390fd5b80915050919050565b60008073ffffffffffffffffffffffffffffffffffffffff168273ffffffffffffffffffffffffffffffffffffffff16036101bb576040517f08c379a00000000000000000000000000000000000000000000000000000000081526004016101b29061045e565b60405180910390fd5b600160008373ffffffffffffffffffffffffffffffffffffffff1673ffffffffffffffffffffffffffffffffffffffff168152602001908152602001600020549050919050565b600080fd5b6000819050919050565b61021a81610207565b811461022557600080fd5b50565b60008135905061023781610211565b92915050565b60006020828403121561025357610252610202565b5b600061026184828501610228565b91505092915050565b600073ffffffffffffffffffffffffffffffffffffffff82169050919050565b60006102958261026a565b9050919050565b6102a58161028a565b82525050565b60006020820190506102c0600083018461029c565b92915050565b6102cf8161028a565b81146102da57600080fd5b50565b6000813590506102ec816102c6565b92915050565b60006020828403121561030857610307610202565b5b6000610316848285016102dd565b91505092915050565b61032881610207565b82525050565b6000602082019050610343600083018461031f565b92915050565b600082825260208201905092915050565b7f4f776e657220646f6573206e6f7420657869737420666f72207468652067697660008201527f656e20746f6b656e204944000000000000000000000000000000000000000000602082015250565b60006103b6602b83610349565b91506103c18261035a565b604082019050919050565b600060208201905081810360008301526103e5816103a9565b9050919050565b7f696e76616c6964206f776e6572206164647265737320666f7220746f6b656e2060008201527f7175657279000000000000000000000000000000000000000000000000000000602082015250565b6000610448602583610349565b9150610453826103ec565b604082019050919050565b600060208201905081810360008301526104778161043b565b905091905056fea26469706673582212204bba815fea374331ed3e82da9e0766cfc7f0ad0d673478eecc09f09c9ac01b9264736f6c634300080f0033",
  "immutableReferences": {},
  "source": "// SPDX-License-Identifier: MIT\r\npragma solidity ^0.8.0;\r\n\r\ncontract ERC721\r\n{\r\n    event Transfer(address indexed from, address indexed to, uint256 indexed tokenId);\r\n\r\n    //mapping token from id to owner\r\n    mapping(uint256 => address ) private _tokenOwner;\r\n\r\n    //mapping from owner to number of owned tokens\r\n    mapping(address => uint256) private _ownedTokensCount; \r\n\r\n    function balanceOf(address _owner) public view returns(uint256)\r\n    {\r\n        require(_owner != address(0), \"invalid owner address for token query\");\r\n        return _ownedTokensCount[_owner];\r\n    }\r\n\r\n    function ownerOf(uint256 _tokenId) public view returns(address)\r\n    {\r\n        address owner = _tokenOwner[_tokenId];\r\n        require(owner!=address(0), \"Owner does not exist for the given token ID\");\r\n        return owner;\r\n    }\r\n\r\n    function _exists(uint256 tokenId) internal view returns (bool)\r\n    {\r\n        address owner = _tokenOwner[tokenId];\r\n        return owner!=address(0);\r\n    }\r\n\r\n    function _mint(address to, uint256 tokenId) internal virtual\r\n    {\r\n        require(to!= address(0),\"ERC721: mint to address 0 is not allowed\");\r\n        require(!_exists(tokenId),\"ERC721: token already exists\");\r\n        _tokenOwner[tokenId] = to;\r\n        _ownedTokensCount[to]+=1;\r\n\r\n        emit Transfer(address(0), to, tokenId);\r\n    }\r\n}",
  "sourcePath": "C:\\Users\\Sarthak\\Documents\\Web Development\\NFT Marketplace\\nft-marketplace\\contracts\\ERC721.sol",
  "compiler": {
    "name": "solc",
    "version": "0.8.15+commit.e14f2714.Emscripten.clang"
  },
  "schemaVersion": "3.4.7",
  "updatedAt": "2022-07-01T17:14:45.300Z",
  "devdoc": {
    "kind": "dev",
    "methods": {},
    "version": 1
  },
  "userdoc": {
    "kind": "user",
    "methods": {},
    "version": 1
  }
}