{
  "contractName": "ERC721Metadata",
  "abi": [
    {
      "inputs": [
        {
          "internalType": "string",
          "name": "named",
          "type": "string"
        },
        {
          "internalType": "string",
          "name": "sybolified",
          "type": "string"
        }
      ],
      "stateMutability": "nonpayable",
      "type": "constructor"
    },
    {
      "inputs": [
        {
          "internalType": "bytes4",
          "name": "interfaceId",
          "type": "bytes4"
        }
      ],
      "name": "_registerInterface",
      "outputs": [],
      "stateMutability": "nonpayable",
      "type": "function"
    },
    {
      "inputs": [],
      "name": "calcFingerPrint",
      "outputs": [
        {
          "internalType": "bytes4",
          "name": "",
          "type": "bytes4"
        }
      ],
      "stateMutability": "pure",
      "type": "function"
    },
    {
      "inputs": [
        {
          "internalType": "bytes4",
          "name": "interfaceId",
          "type": "bytes4"
        }
      ],
      "name": "supportsInterface",
      "outputs": [
        {
          "internalType": "bool",
          "name": "",
          "type": "bool"
        }
      ],
      "stateMutability": "view",
      "type": "function"
    },
    {
      "inputs": [],
      "name": "name",
      "outputs": [
        {
          "internalType": "string",
          "name": "",
          "type": "string"
        }
      ],
      "stateMutability": "view",
      "type": "function"
    },
    {
      "inputs": [],
      "name": "symbol",
      "outputs": [
        {
          "internalType": "string",
          "name": "",
          "type": "string"
        }
      ],
      "stateMutability": "view",
      "type": "function"
    }
  ],
  "bytecode": "0x60806040523480156200001157600080fd5b5060405162000dd538038062000dd583398181016040528101906200003791906200035b565b620000687f01ffc9a7a5cef8baa21ed3c5c0d7e23accb804b619e9333b597f47a0d84076e2620000e760201b60201c565b620000bb7f13b182f4c0e5b2efbac0efe6cf6d756c8b89f4b79c5707a043ed9ea740574ee97f7feaf19471f34a12a7eaf32d5f3090aa2260ea8624dc8a138e74e0bf0f62307618620000e760201b60201c565b8160019081620000cc91906200062b565b508060029081620000de91906200062b565b50505062000795565b63ffffffff60e01b817bffffffffffffffffffffffffffffffffffffffffffffffffffffffff19160362000152576040517f08c379a0000000000000000000000000000000000000000000000000000000008152600401620001499062000773565b60405180910390fd5b6001600080837bffffffffffffffffffffffffffffffffffffffffffffffffffffffff19167bffffffffffffffffffffffffffffffffffffffffffffffffffffffff1916815260200190815260200160002060006101000a81548160ff02191690831515021790555050565b6000604051905090565b600080fd5b600080fd5b600080fd5b600080fd5b6000601f19601f8301169050919050565b7f4e487b7100000000000000000000000000000000000000000000000000000000600052604160045260246000fd5b6200022782620001dc565b810181811067ffffffffffffffff82111715620002495762000248620001ed565b5b80604052505050565b60006200025e620001be565b90506200026c82826200021c565b919050565b600067ffffffffffffffff8211156200028f576200028e620001ed565b5b6200029a82620001dc565b9050602081019050919050565b60005b83811015620002c7578082015181840152602081019050620002aa565b83811115620002d7576000848401525b50505050565b6000620002f4620002ee8462000271565b62000252565b905082815260208101848484011115620003135762000312620001d7565b5b62000320848285620002a7565b509392505050565b600082601f83011262000340576200033f620001d2565b5b815162000352848260208601620002dd565b91505092915050565b60008060408385031215620003755762000374620001c8565b5b600083015167ffffffffffffffff811115620003965762000395620001cd565b5b620003a48582860162000328565b925050602083015167ffffffffffffffff811115620003c857620003c7620001cd565b5b620003d68582860162000328565b9150509250929050565b600081519050919050565b7f4e487b7100000000000000000000000000000000000000000000000000000000600052602260045260246000fd5b600060028204905060018216806200043357607f821691505b602082108103620004495762000448620003eb565b5b50919050565b60008190508160005260206000209050919050565b60006020601f8301049050919050565b600082821b905092915050565b600060088302620004b37fffffffffffffffffffffffffffffffffffffffffffffffffffffffffffffffff8262000474565b620004bf868362000474565b95508019841693508086168417925050509392505050565b6000819050919050565b6000819050919050565b60006200050c620005066200050084620004d7565b620004e1565b620004d7565b9050919050565b6000819050919050565b6200052883620004eb565b62000540620005378262000513565b84845462000481565b825550505050565b600090565b6200055762000548565b620005648184846200051d565b505050565b5b818110156200058c57620005806000826200054d565b6001810190506200056a565b5050565b601f821115620005db57620005a5816200044f565b620005b08462000464565b81016020851015620005c0578190505b620005d8620005cf8562000464565b83018262000569565b50505b505050565b600082821c905092915050565b60006200060060001984600802620005e0565b1980831691505092915050565b60006200061b8383620005ed565b9150826002028217905092915050565b6200063682620003e0565b67ffffffffffffffff811115620006525762000651620001ed565b5b6200065e82546200041a565b6200066b82828562000590565b600060209050601f831160018114620006a357600084156200068e578287015190505b6200069a85826200060d565b8655506200070a565b601f198416620006b3866200044f565b60005b82811015620006dd57848901518255600182019150602085019450602081019050620006b6565b86831015620006fd5784890151620006f9601f891682620005ed565b8355505b6001600288020188555050505b505050505050565b600082825260208201905092915050565b7f4552433136353a20496e76616c696420496e7465726661636500000000000000600082015250565b60006200075b60198362000712565b9150620007688262000723565b602082019050919050565b600060208201905081810360008301526200078e816200074c565b9050919050565b61063080620007a56000396000f3fe608060405234801561001057600080fd5b50600436106100575760003560e01c806301ffc9a71461005c578063068417d91461008c57806306fdde03146100a85780638b1ccaee146100c657806395d89b41146100e4575b600080fd5b610076600480360381019061007191906103e6565b610102565b604051610083919061042e565b60405180910390f35b6100a660048036038101906100a191906103e6565b610169565b005b6100b061023d565b6040516100bd91906104e2565b60405180910390f35b6100ce6102cf565b6040516100db9190610513565b60405180910390f35b6100ec6102f7565b6040516100f991906104e2565b60405180910390f35b6000806000837bffffffffffffffffffffffffffffffffffffffffffffffffffffffff19167bffffffffffffffffffffffffffffffffffffffffffffffffffffffff1916815260200190815260200160002060009054906101000a900460ff169050919050565b63ffffffff60e01b817bffffffffffffffffffffffffffffffffffffffffffffffffffffffff1916036101d1576040517f08c379a00000000000000000000000000000000000000000000000000000000081526004016101c89061057a565b60405180910390fd5b6001600080837bffffffffffffffffffffffffffffffffffffffffffffffffffffffff19167bffffffffffffffffffffffffffffffffffffffffffffffffffffffff1916815260200190815260200160002060006101000a81548160ff02191690831515021790555050565b60606001805461024c906105c9565b80601f0160208091040260200160405190810160405280929190818152602001828054610278906105c9565b80156102c55780601f1061029a576101008083540402835291602001916102c5565b820191906000526020600020905b8154815290600101906020018083116102a857829003601f168201915b5050505050905090565b60007f01ffc9a7a5cef8baa21ed3c5c0d7e23accb804b619e9333b597f47a0d84076e2905090565b606060028054610306906105c9565b80601f0160208091040260200160405190810160405280929190818152602001828054610332906105c9565b801561037f5780601f106103545761010080835404028352916020019161037f565b820191906000526020600020905b81548152906001019060200180831161036257829003601f168201915b5050505050905090565b600080fd5b60007fffffffff0000000000000000000000000000000000000000000000000000000082169050919050565b6103c38161038e565b81146103ce57600080fd5b50565b6000813590506103e0816103ba565b92915050565b6000602082840312156103fc576103fb610389565b5b600061040a848285016103d1565b91505092915050565b60008115159050919050565b61042881610413565b82525050565b6000602082019050610443600083018461041f565b92915050565b600081519050919050565b600082825260208201905092915050565b60005b83811015610483578082015181840152602081019050610468565b83811115610492576000848401525b50505050565b6000601f19601f8301169050919050565b60006104b482610449565b6104be8185610454565b93506104ce818560208601610465565b6104d781610498565b840191505092915050565b600060208201905081810360008301526104fc81846104a9565b905092915050565b61050d8161038e565b82525050565b60006020820190506105286000830184610504565b92915050565b7f4552433136353a20496e76616c696420496e7465726661636500000000000000600082015250565b6000610564601983610454565b915061056f8261052e565b602082019050919050565b6000602082019050818103600083015261059381610557565b9050919050565b7f4e487b7100000000000000000000000000000000000000000000000000000000600052602260045260246000fd5b600060028204905060018216806105e157607f821691505b6020821081036105f4576105f361059a565b5b5091905056fea2646970667358221220287fb9274f2fda11e6e1ce61f1af57791c883d9c62e09ab5b313df8da2f659d064736f6c634300080f0033",
  "immutableReferences": {},
  "source": "// SPDX-License-Identifier: MIT\r\npragma solidity ^0.8.0;\r\nimport './interfaces/IERC721Metadata.sol';\r\nimport './ERC165.sol';\r\ncontract ERC721Metadata is IERC721Metadata,ERC165\r\n{\r\n    string private _name;\r\n    string private _symbol;\r\n    \r\n    constructor(string memory named,string memory sybolified)\r\n    {\r\n        _registerInterface(bytes4(keccak256('name(bytes4)')^\r\n        keccak256('symbol(bytes4)')\r\n        ));\r\n        _name = named;\r\n        _symbol = sybolified;\r\n    }\r\n    function  name() external view override returns (string memory)\r\n    {\r\n        return _name;\r\n    }\r\n\r\n    function symbol() external view override returns (string memory)\r\n    {\r\n        return _symbol;\r\n    }\r\n\r\n    \r\n}",
  "sourcePath": "C:\\Users\\Sarthak\\Documents\\Web Development\\NFT Marketplace\\nft-marketplace\\contracts\\ERC721Metadata.sol",
  "compiler": {
    "name": "solc",
    "version": "0.8.15+commit.e14f2714.Emscripten.clang"
  },
  "schemaVersion": "3.4.7",
  "updatedAt": "2022-07-25T15:27:50.317Z",
  "devdoc": {
    "kind": "dev",
    "methods": {},
    "version": 1
  },
  "userdoc": {
    "kind": "user",
    "methods": {
      "name()": {
        "notice": "A descriptive name for a collection of NFTs in this contract"
      },
      "symbol()": {
        "notice": "An abbreviated name for NFTs in this contract"
      }
    },
    "version": 1
  }
}