{
  "contractName": "ERC721Connector",
  "abi": [
    {
      "inputs": [
        {
          "internalType": "string",
          "name": "name",
          "type": "string"
        },
        {
          "internalType": "string",
          "name": "symbol",
          "type": "string"
        }
      ],
      "stateMutability": "nonpayable",
      "type": "constructor"
    },
    {
      "anonymous": false,
      "inputs": [
        {
          "indexed": true,
          "internalType": "address",
          "name": "_owner",
          "type": "address"
        },
        {
          "indexed": true,
          "internalType": "address",
          "name": "_approved",
          "type": "address"
        },
        {
          "indexed": true,
          "internalType": "uint256",
          "name": "_tokenId",
          "type": "uint256"
        }
      ],
      "name": "Approval",
      "type": "event"
    },
    {
      "anonymous": false,
      "inputs": [
        {
          "indexed": true,
          "internalType": "address",
          "name": "_from",
          "type": "address"
        },
        {
          "indexed": true,
          "internalType": "address",
          "name": "_to",
          "type": "address"
        },
        {
          "indexed": true,
          "internalType": "uint256",
          "name": "_tokenId",
          "type": "uint256"
        }
      ],
      "name": "Transfer",
      "type": "event"
    },
    {
      "inputs": [
        {
          "internalType": "bytes4",
          "name": "interfaceId",
          "type": "bytes4"
        }
      ],
      "name": "_registerInterface",
      "outputs": [],
      "stateMutability": "nonpayable",
      "type": "function"
    },
    {
      "inputs": [
        {
          "internalType": "address",
          "name": "_to",
          "type": "address"
        },
        {
          "internalType": "uint256",
          "name": "tokenId",
          "type": "uint256"
        }
      ],
      "name": "approve",
      "outputs": [],
      "stateMutability": "nonpayable",
      "type": "function"
    },
    {
      "inputs": [
        {
          "internalType": "address",
          "name": "_owner",
          "type": "address"
        }
      ],
      "name": "balanceOf",
      "outputs": [
        {
          "internalType": "uint256",
          "name": "",
          "type": "uint256"
        }
      ],
      "stateMutability": "view",
      "type": "function"
    },
    {
      "inputs": [],
      "name": "calcFingerPrint",
      "outputs": [
        {
          "internalType": "bytes4",
          "name": "",
          "type": "bytes4"
        }
      ],
      "stateMutability": "pure",
      "type": "function"
    },
    {
      "inputs": [],
      "name": "name",
      "outputs": [
        {
          "internalType": "string",
          "name": "",
          "type": "string"
        }
      ],
      "stateMutability": "view",
      "type": "function"
    },
    {
      "inputs": [
        {
          "internalType": "uint256",
          "name": "_tokenId",
          "type": "uint256"
        }
      ],
      "name": "ownerOf",
      "outputs": [
        {
          "internalType": "address",
          "name": "",
          "type": "address"
        }
      ],
      "stateMutability": "view",
      "type": "function"
    },
    {
      "inputs": [
        {
          "internalType": "bytes4",
          "name": "interfaceId",
          "type": "bytes4"
        }
      ],
      "name": "supportsInterface",
      "outputs": [
        {
          "internalType": "bool",
          "name": "",
          "type": "bool"
        }
      ],
      "stateMutability": "view",
      "type": "function"
    },
    {
      "inputs": [],
      "name": "symbol",
      "outputs": [
        {
          "internalType": "string",
          "name": "",
          "type": "string"
        }
      ],
      "stateMutability": "view",
      "type": "function"
    },
    {
      "inputs": [
        {
          "internalType": "uint256",
          "name": "index",
          "type": "uint256"
        }
      ],
      "name": "tokenByIndex",
      "outputs": [
        {
          "internalType": "uint256",
          "name": "",
          "type": "uint256"
        }
      ],
      "stateMutability": "view",
      "type": "function"
    },
    {
      "inputs": [
        {
          "internalType": "address",
          "name": "owner",
          "type": "address"
        },
        {
          "internalType": "uint256",
          "name": "index",
          "type": "uint256"
        }
      ],
      "name": "tokenOfOwnerByIndex",
      "outputs": [
        {
          "internalType": "uint256",
          "name": "",
          "type": "uint256"
        }
      ],
      "stateMutability": "view",
      "type": "function"
    },
    {
      "inputs": [],
      "name": "totalSupply",
      "outputs": [
        {
          "internalType": "uint256",
          "name": "",
          "type": "uint256"
        }
      ],
      "stateMutability": "view",
      "type": "function"
    },
    {
      "inputs": [
        {
          "internalType": "address",
          "name": "_from",
          "type": "address"
        },
        {
          "internalType": "address",
          "name": "_to",
          "type": "address"
        },
        {
          "internalType": "uint256",
          "name": "_tokenId",
          "type": "uint256"
        }
      ],
      "name": "transferFrom",
      "outputs": [],
      "stateMutability": "nonpayable",
      "type": "function"
    }
  ],
  "bytecode": "0x60806040523480156200001157600080fd5b5060405162001fab38038062001fab83398181016040528101906200003791906200046b565b81816200006a7f01ffc9a7a5cef8baa21ed3c5c0d7e23accb804b619e9333b597f47a0d84076e2620001f760201b60201c565b620000bd7f13b182f4c0e5b2efbac0efe6cf6d756c8b89f4b79c5707a043ed9ea740574ee97f7feaf19471f34a12a7eaf32d5f3090aa2260ea8624dc8a138e74e0bf0f62307618620001f760201b60201c565b8160019081620000ce91906200073b565b508060029081620000e091906200073b565b5050506200017a7f8c51fd5fcf1f456ec4eb0f32f68d83471264fe082fac12bcbfd2fa4be9eed6c77f22c82707ba960a14c7592ffb6b8cfaa073fed0048a84cc7fa41f6b5bd8e7f2e47f7c1c4246af5561407c5193d0f67e68e23182a8f219fba25cf69514dfbf96f61c7f8a7e378434598edc36d108689a030cbc9d7d465de4f74c71bae1028eed6a881b181818620001f760201b60201c565b620001ef7f6da5e1284143cdd2d15038a59bde3be031250f00291d64494c12d967b3a4e0c37fcc64ae0e2d0f6ba253763eeab8d078580edbe293d2a68e06908be8112a6bbaaa7f8230223f691b981717299fae9549350a0d894555723531f02108b1f522c1a7971818620001f760201b60201c565b5050620008a5565b63ffffffff60e01b817bffffffffffffffffffffffffffffffffffffffffffffffffffffffff19160362000262576040517f08c379a0000000000000000000000000000000000000000000000000000000008152600401620002599062000883565b60405180910390fd5b6001600080837bffffffffffffffffffffffffffffffffffffffffffffffffffffffff19167bffffffffffffffffffffffffffffffffffffffffffffffffffffffff1916815260200190815260200160002060006101000a81548160ff02191690831515021790555050565b6000604051905090565b600080fd5b600080fd5b600080fd5b600080fd5b6000601f19601f8301169050919050565b7f4e487b7100000000000000000000000000000000000000000000000000000000600052604160045260246000fd5b6200033782620002ec565b810181811067ffffffffffffffff82111715620003595762000358620002fd565b5b80604052505050565b60006200036e620002ce565b90506200037c82826200032c565b919050565b600067ffffffffffffffff8211156200039f576200039e620002fd565b5b620003aa82620002ec565b9050602081019050919050565b60005b83811015620003d7578082015181840152602081019050620003ba565b83811115620003e7576000848401525b50505050565b600062000404620003fe8462000381565b62000362565b905082815260208101848484011115620004235762000422620002e7565b5b62000430848285620003b7565b509392505050565b600082601f83011262000450576200044f620002e2565b5b815162000462848260208601620003ed565b91505092915050565b60008060408385031215620004855762000484620002d8565b5b600083015167ffffffffffffffff811115620004a657620004a5620002dd565b5b620004b48582860162000438565b925050602083015167ffffffffffffffff811115620004d857620004d7620002dd565b5b620004e68582860162000438565b9150509250929050565b600081519050919050565b7f4e487b7100000000000000000000000000000000000000000000000000000000600052602260045260246000fd5b600060028204905060018216806200054357607f821691505b602082108103620005595762000558620004fb565b5b50919050565b60008190508160005260206000209050919050565b60006020601f8301049050919050565b600082821b905092915050565b600060088302620005c37fffffffffffffffffffffffffffffffffffffffffffffffffffffffffffffffff8262000584565b620005cf868362000584565b95508019841693508086168417925050509392505050565b6000819050919050565b6000819050919050565b60006200061c620006166200061084620005e7565b620005f1565b620005e7565b9050919050565b6000819050919050565b6200063883620005fb565b62000650620006478262000623565b84845462000591565b825550505050565b600090565b6200066762000658565b620006748184846200062d565b505050565b5b818110156200069c57620006906000826200065d565b6001810190506200067a565b5050565b601f821115620006eb57620006b5816200055f565b620006c08462000574565b81016020851015620006d0578190505b620006e8620006df8562000574565b83018262000679565b50505b505050565b600082821c905092915050565b60006200071060001984600802620006f0565b1980831691505092915050565b60006200072b8383620006fd565b9150826002028217905092915050565b6200074682620004f0565b67ffffffffffffffff811115620007625762000761620002fd565b5b6200076e82546200052a565b6200077b828285620006a0565b600060209050601f831160018114620007b357600084156200079e578287015190505b620007aa85826200071d565b8655506200081a565b601f198416620007c3866200055f565b60005b82811015620007ed57848901518255600182019150602085019450602081019050620007c6565b868310156200080d578489015162000809601f891682620006fd565b8355505b6001600288020188555050505b505050505050565b600082825260208201905092915050565b7f4552433136353a20496e76616c696420496e7465726661636500000000000000600082015250565b60006200086b60198362000822565b9150620008788262000833565b602082019050919050565b600060208201905081810360008301526200089e816200085c565b9050919050565b6116f680620008b56000396000f3fe608060405234801561001057600080fd5b50600436106100b45760003560e01c80632f745c59116100715780632f745c59146101795780634f6ccce7146101a95780636352211e146101d957806370a08231146102095780638b1ccaee1461023957806395d89b4114610257576100b4565b806301ffc9a7146100b9578063068417d9146100e957806306fdde0314610105578063095ea7b31461012357806318160ddd1461013f57806323b872dd1461015d575b600080fd5b6100d360048036038101906100ce9190610cf3565b610275565b6040516100e09190610d3b565b60405180910390f35b61010360048036038101906100fe9190610cf3565b6102dc565b005b61010d6103b0565b60405161011a9190610def565b60405180910390f35b61013d60048036038101906101389190610ea5565b610442565b005b6101476105dd565b6040516101549190610ef4565b60405180910390f35b61017760048036038101906101729190610f0f565b6105ea565b005b610193600480360381019061018e9190610ea5565b61060d565b6040516101a09190610ef4565b60405180910390f35b6101c360048036038101906101be9190610f62565b6106bd565b6040516101d09190610ef4565b60405180910390f35b6101f360048036038101906101ee9190610f62565b61072e565b6040516102009190610f9e565b60405180910390f35b610223600480360381019061021e9190610fb9565b6107df565b6040516102309190610ef4565b60405180910390f35b610241610896565b60405161024e9190610ff5565b60405180910390f35b61025f6108be565b60405161026c9190610def565b60405180910390f35b6000806000837bffffffffffffffffffffffffffffffffffffffffffffffffffffffff19167bffffffffffffffffffffffffffffffffffffffffffffffffffffffff1916815260200190815260200160002060009054906101000a900460ff169050919050565b63ffffffff60e01b817bffffffffffffffffffffffffffffffffffffffffffffffffffffffff191603610344576040517f08c379a000000000000000000000000000000000000000000000000000000000815260040161033b9061105c565b60405180910390fd5b6001600080837bffffffffffffffffffffffffffffffffffffffffffffffffffffffff19167bffffffffffffffffffffffffffffffffffffffffffffffffffffffff1916815260200190815260200160002060006101000a81548160ff02191690831515021790555050565b6060600180546103bf906110ab565b80601f01602080910402602001604051908101604052809291908181526020018280546103eb906110ab565b80156104385780601f1061040d57610100808354040283529160200191610438565b820191906000526020600020905b81548152906001019060200180831161041b57829003601f168201915b5050505050905090565b600061044d8261072e565b90508073ffffffffffffffffffffffffffffffffffffffff168373ffffffffffffffffffffffffffffffffffffffff16036104bd576040517f08c379a00000000000000000000000000000000000000000000000000000000081526004016104b49061114e565b60405180910390fd5b8073ffffffffffffffffffffffffffffffffffffffff163373ffffffffffffffffffffffffffffffffffffffff161461052b576040517f08c379a0000000000000000000000000000000000000000000000000000000008152600401610522906111e0565b60405180910390fd5b826005600084815260200190815260200160002060006101000a81548173ffffffffffffffffffffffffffffffffffffffff021916908373ffffffffffffffffffffffffffffffffffffffff160217905550818373ffffffffffffffffffffffffffffffffffffffff168273ffffffffffffffffffffffffffffffffffffffff167f8c5be1e5ebec7d5bd14f71427d1e84f3dd0314c0f7b2291e5b200ac8c7c3b92560405160405180910390a4505050565b6000600780549050905090565b6105f43382610950565b6105fd57600080fd5b6106088383836109df565b505050565b6000610618836107df565b8210610659576040517f08c379a000000000000000000000000000000000000000000000000000000000815260040161065090611272565b60405180910390fd5b600960008473ffffffffffffffffffffffffffffffffffffffff1673ffffffffffffffffffffffffffffffffffffffff16815260200190815260200160002082815481106106aa576106a9611292565b5b9060005260206000200154905092915050565b60006106c76105dd565b8210610708576040517f08c379a00000000000000000000000000000000000000000000000000000000081526004016106ff90611333565b60405180910390fd5b6007828154811061071c5761071b611292565b5b90600052602060002001549050919050565b6000806003600084815260200190815260200160002060009054906101000a900473ffffffffffffffffffffffffffffffffffffffff169050600073ffffffffffffffffffffffffffffffffffffffff168173ffffffffffffffffffffffffffffffffffffffff16036107d6576040517f08c379a00000000000000000000000000000000000000000000000000000000081526004016107cd906113c5565b60405180910390fd5b80915050919050565b60008073ffffffffffffffffffffffffffffffffffffffff168273ffffffffffffffffffffffffffffffffffffffff160361084f576040517f08c379a000000000000000000000000000000000000000000000000000000000815260040161084690611457565b60405180910390fd5b600460008373ffffffffffffffffffffffffffffffffffffffff1673ffffffffffffffffffffffffffffffffffffffff168152602001908152602001600020549050919050565b60007f01ffc9a7a5cef8baa21ed3c5c0d7e23accb804b619e9333b597f47a0d84076e2905090565b6060600280546108cd906110ab565b80601f01602080910402602001604051908101604052809291908181526020018280546108f9906110ab565b80156109465780601f1061091b57610100808354040283529160200191610946565b820191906000526020600020905b81548152906001019060200180831161092957829003601f168201915b5050505050905090565b600061095b82610c24565b61099a576040517f08c379a0000000000000000000000000000000000000000000000000000000008152600401610991906114c3565b60405180910390fd5b60006109a58361072e565b90508073ffffffffffffffffffffffffffffffffffffffff168473ffffffffffffffffffffffffffffffffffffffff161491505092915050565b600073ffffffffffffffffffffffffffffffffffffffff168273ffffffffffffffffffffffffffffffffffffffff1603610a4e576040517f08c379a0000000000000000000000000000000000000000000000000000000008152600401610a4590611555565b60405180910390fd5b8273ffffffffffffffffffffffffffffffffffffffff16610a6e8261072e565b73ffffffffffffffffffffffffffffffffffffffff1614610ac4576040517f08c379a0000000000000000000000000000000000000000000000000000000008152600401610abb906115e7565b60405180910390fd5b6001600460008573ffffffffffffffffffffffffffffffffffffffff1673ffffffffffffffffffffffffffffffffffffffff1681526020019081526020016000206000828254610b149190611636565b925050819055506001600460008473ffffffffffffffffffffffffffffffffffffffff1673ffffffffffffffffffffffffffffffffffffffff1681526020019081526020016000206000828254610b6b919061166a565b92505081905550816003600083815260200190815260200160002060006101000a81548173ffffffffffffffffffffffffffffffffffffffff021916908373ffffffffffffffffffffffffffffffffffffffff160217905550808273ffffffffffffffffffffffffffffffffffffffff168473ffffffffffffffffffffffffffffffffffffffff167fddf252ad1be2c89b69c2b068fc378daa952ba7f163c4a11628f55a4df523b3ef60405160405180910390a4505050565b6000806003600084815260200190815260200160002060009054906101000a900473ffffffffffffffffffffffffffffffffffffffff169050600073ffffffffffffffffffffffffffffffffffffffff168173ffffffffffffffffffffffffffffffffffffffff161415915050919050565b600080fd5b60007fffffffff0000000000000000000000000000000000000000000000000000000082169050919050565b610cd081610c9b565b8114610cdb57600080fd5b50565b600081359050610ced81610cc7565b92915050565b600060208284031215610d0957610d08610c96565b5b6000610d1784828501610cde565b91505092915050565b60008115159050919050565b610d3581610d20565b82525050565b6000602082019050610d506000830184610d2c565b92915050565b600081519050919050565b600082825260208201905092915050565b60005b83811015610d90578082015181840152602081019050610d75565b83811115610d9f576000848401525b50505050565b6000601f19601f8301169050919050565b6000610dc182610d56565b610dcb8185610d61565b9350610ddb818560208601610d72565b610de481610da5565b840191505092915050565b60006020820190508181036000830152610e098184610db6565b905092915050565b600073ffffffffffffffffffffffffffffffffffffffff82169050919050565b6000610e3c82610e11565b9050919050565b610e4c81610e31565b8114610e5757600080fd5b50565b600081359050610e6981610e43565b92915050565b6000819050919050565b610e8281610e6f565b8114610e8d57600080fd5b50565b600081359050610e9f81610e79565b92915050565b60008060408385031215610ebc57610ebb610c96565b5b6000610eca85828601610e5a565b9250506020610edb85828601610e90565b9150509250929050565b610eee81610e6f565b82525050565b6000602082019050610f096000830184610ee5565b92915050565b600080600060608486031215610f2857610f27610c96565b5b6000610f3686828701610e5a565b9350506020610f4786828701610e5a565b9250506040610f5886828701610e90565b9150509250925092565b600060208284031215610f7857610f77610c96565b5b6000610f8684828501610e90565b91505092915050565b610f9881610e31565b82525050565b6000602082019050610fb36000830184610f8f565b92915050565b600060208284031215610fcf57610fce610c96565b5b6000610fdd84828501610e5a565b91505092915050565b610fef81610c9b565b82525050565b600060208201905061100a6000830184610fe6565b92915050565b7f4552433136353a20496e76616c696420496e7465726661636500000000000000600082015250565b6000611046601983610d61565b915061105182611010565b602082019050919050565b6000602082019050818103600083015261107581611039565b9050919050565b7f4e487b7100000000000000000000000000000000000000000000000000000000600052602260045260246000fd5b600060028204905060018216806110c357607f821691505b6020821081036110d6576110d561107c565b5b50919050565b7f4572726f72202d20617070726f76616c20746f2063757272656e74206f776e6560008201527f7200000000000000000000000000000000000000000000000000000000000000602082015250565b6000611138602183610d61565b9150611143826110dc565b604082019050919050565b600060208201905081810360008301526111678161112b565b9050919050565b7f43757272656e742063616c6c6572206973206e6f7420746865206f776e65722060008201527f6f662074686520746f6b656e0000000000000000000000000000000000000000602082015250565b60006111ca602c83610d61565b91506111d58261116e565b604082019050919050565b600060208201905081810360008301526111f9816111bd565b9050919050565b7f537065636966696564206f776e657220496e64657820446f6573206e6f74204560008201527f7869737400000000000000000000000000000000000000000000000000000000602082015250565b600061125c602483610d61565b915061126782611200565b604082019050919050565b6000602082019050818103600083015261128b8161124f565b9050919050565b7f4e487b7100000000000000000000000000000000000000000000000000000000600052603260045260246000fd5b7f53706563696669656420676c6f62616c20496e64657820446f6573206e6f742060008201527f4578697374000000000000000000000000000000000000000000000000000000602082015250565b600061131d602583610d61565b9150611328826112c1565b604082019050919050565b6000602082019050818103600083015261134c81611310565b9050919050565b7f4f776e657220646f6573206e6f7420657869737420666f72207468652067697660008201527f656e20746f6b656e204944000000000000000000000000000000000000000000602082015250565b60006113af602b83610d61565b91506113ba82611353565b604082019050919050565b600060208201905081810360008301526113de816113a2565b9050919050565b7f696e76616c6964206f776e6572206164647265737320666f7220746f6b656e2060008201527f7175657279000000000000000000000000000000000000000000000000000000602082015250565b6000611441602583610d61565b915061144c826113e5565b604082019050919050565b6000602082019050818103600083015261147081611434565b9050919050565b7f746f6b656e20646f6573206e6f74206578697374000000000000000000000000600082015250565b60006114ad601483610d61565b91506114b882611477565b602082019050919050565b600060208201905081810360008301526114dc816114a0565b9050919050565b7f4572726f72202d20455243373231205472616e7366657220746f20746865207a60008201527f65726f2061646472657373000000000000000000000000000000000000000000602082015250565b600061153f602b83610d61565b915061154a826114e3565b604082019050919050565b6000602082019050818103600083015261156e81611532565b9050919050565b7f547279696e6720746f207472616e73666572206120746f6b656e20746865206160008201527f64647265737320646f6573206e6f74206f776e21000000000000000000000000602082015250565b60006115d1603483610d61565b91506115dc82611575565b604082019050919050565b60006020820190508181036000830152611600816115c4565b9050919050565b7f4e487b7100000000000000000000000000000000000000000000000000000000600052601160045260246000fd5b600061164182610e6f565b915061164c83610e6f565b92508282101561165f5761165e611607565b5b828203905092915050565b600061167582610e6f565b915061168083610e6f565b9250827fffffffffffffffffffffffffffffffffffffffffffffffffffffffffffffffff038211156116b5576116b4611607565b5b82820190509291505056fea26469706673582212208704476732a761290a7fb157361f0cb7acde9616fc074d4ca88585a5ae10847d64736f6c634300080f0033",
  "immutableReferences": {},
  "source": "// SPDX-License-Identifier: MIT\r\npragma solidity ^0.8.0;\r\n\r\nimport './ERC721Metadata.sol';\r\nimport './ERC721Enumerable.sol';\r\n\r\ncontract ERC721Connector is ERC721Metadata,ERC721Enumerable \r\n{\r\n    constructor (string memory name, string memory symbol) ERC721Metadata(name, symbol)\r\n    {\r\n\r\n    }\r\n}\r\n",
  "sourcePath": "C:\\Users\\Sarthak\\Documents\\Web Development\\NFT Marketplace\\nft-marketplace\\contracts\\ERC721Connector.sol",
  "compiler": {
    "name": "solc",
    "version": "0.8.15+commit.e14f2714.Emscripten.clang"
  },
  "schemaVersion": "3.4.7",
  "updatedAt": "2022-07-25T15:27:50.287Z",
  "devdoc": {
    "kind": "dev",
    "methods": {
      "balanceOf(address)": {
        "details": "NFTs assigned to the zero address are considered invalid, and this  function throws for queries about the zero address.",
        "params": {
          "_owner": "An address for whom to query the balance"
        },
        "returns": {
          "_0": "The number of NFTs owned by `_owner`, possibly zero"
        }
      },
      "ownerOf(uint256)": {
        "details": "NFTs assigned to zero address are considered invalid, and queries  about them do throw.",
        "params": {
          "_tokenId": "The identifier for an NFT"
        },
        "returns": {
          "_0": "The address of the owner of the NFT"
        }
      },
      "totalSupply()": {
        "returns": {
          "_0": "A count of valid NFTs tracked by this contract, where each one of  them has an assigned and queryable owner not equal to the zero address"
        }
      },
      "transferFrom(address,address,uint256)": {
        "details": "Throws unless `msg.sender` is the current owner, an authorized  operator, or the approved address for this NFT. Throws if `_from` is  not the current owner. Throws if `_to` is the zero address. Throws if  `_tokenId` is not a valid NFT.",
        "params": {
          "_from": "The current owner of the NFT",
          "_to": "The new owner",
          "_tokenId": "The NFT to transfer"
        }
      }
    },
    "version": 1
  },
  "userdoc": {
    "kind": "user",
    "methods": {
      "balanceOf(address)": {
        "notice": "Count all NFTs assigned to an owner"
      },
      "name()": {
        "notice": "A descriptive name for a collection of NFTs in this contract"
      },
      "ownerOf(uint256)": {
        "notice": "Find the owner of an NFT"
      },
      "symbol()": {
        "notice": "An abbreviated name for NFTs in this contract"
      },
      "totalSupply()": {
        "notice": "Count NFTs tracked by this contract"
      },
      "transferFrom(address,address,uint256)": {
        "notice": "Transfer ownership of an NFT -- THE CALLER IS RESPONSIBLE  TO CONFIRM THAT `_to` IS CAPABLE OF RECEIVING NFTS OR ELSE  THEY MAY BE PERMANENTLY LOST"
      }
    },
    "version": 1
  }
}