{
  "contractName": "KryptoBird",
  "abi": [
    {
      "inputs": [],
      "stateMutability": "nonpayable",
      "type": "constructor"
    },
    {
      "anonymous": false,
      "inputs": [
        {
          "indexed": true,
          "internalType": "address",
          "name": "_owner",
          "type": "address"
        },
        {
          "indexed": true,
          "internalType": "address",
          "name": "_approved",
          "type": "address"
        },
        {
          "indexed": true,
          "internalType": "uint256",
          "name": "_tokenId",
          "type": "uint256"
        }
      ],
      "name": "Approval",
      "type": "event"
    },
    {
      "anonymous": false,
      "inputs": [
        {
          "indexed": true,
          "internalType": "address",
          "name": "_from",
          "type": "address"
        },
        {
          "indexed": true,
          "internalType": "address",
          "name": "_to",
          "type": "address"
        },
        {
          "indexed": true,
          "internalType": "uint256",
          "name": "_tokenId",
          "type": "uint256"
        }
      ],
      "name": "Transfer",
      "type": "event"
    },
    {
      "inputs": [
        {
          "internalType": "bytes4",
          "name": "interfaceId",
          "type": "bytes4"
        }
      ],
      "name": "_registerInterface",
      "outputs": [],
      "stateMutability": "nonpayable",
      "type": "function"
    },
    {
      "inputs": [
        {
          "internalType": "address",
          "name": "_to",
          "type": "address"
        },
        {
          "internalType": "uint256",
          "name": "tokenId",
          "type": "uint256"
        }
      ],
      "name": "approve",
      "outputs": [],
      "stateMutability": "nonpayable",
      "type": "function"
    },
    {
      "inputs": [
        {
          "internalType": "address",
          "name": "_owner",
          "type": "address"
        }
      ],
      "name": "balanceOf",
      "outputs": [
        {
          "internalType": "uint256",
          "name": "",
          "type": "uint256"
        }
      ],
      "stateMutability": "view",
      "type": "function",
      "constant": true
    },
    {
      "inputs": [],
      "name": "calcFingerPrint",
      "outputs": [
        {
          "internalType": "bytes4",
          "name": "",
          "type": "bytes4"
        }
      ],
      "stateMutability": "pure",
      "type": "function",
      "constant": true
    },
    {
      "inputs": [
        {
          "internalType": "uint256",
          "name": "",
          "type": "uint256"
        }
      ],
      "name": "kryptoBirdz",
      "outputs": [
        {
          "internalType": "string",
          "name": "",
          "type": "string"
        }
      ],
      "stateMutability": "view",
      "type": "function",
      "constant": true
    },
    {
      "inputs": [],
      "name": "name",
      "outputs": [
        {
          "internalType": "string",
          "name": "",
          "type": "string"
        }
      ],
      "stateMutability": "view",
      "type": "function",
      "constant": true
    },
    {
      "inputs": [
        {
          "internalType": "uint256",
          "name": "_tokenId",
          "type": "uint256"
        }
      ],
      "name": "ownerOf",
      "outputs": [
        {
          "internalType": "address",
          "name": "",
          "type": "address"
        }
      ],
      "stateMutability": "view",
      "type": "function",
      "constant": true
    },
    {
      "inputs": [
        {
          "internalType": "bytes4",
          "name": "interfaceId",
          "type": "bytes4"
        }
      ],
      "name": "supportsInterface",
      "outputs": [
        {
          "internalType": "bool",
          "name": "",
          "type": "bool"
        }
      ],
      "stateMutability": "view",
      "type": "function",
      "constant": true
    },
    {
      "inputs": [],
      "name": "symbol",
      "outputs": [
        {
          "internalType": "string",
          "name": "",
          "type": "string"
        }
      ],
      "stateMutability": "view",
      "type": "function",
      "constant": true
    },
    {
      "inputs": [
        {
          "internalType": "uint256",
          "name": "index",
          "type": "uint256"
        }
      ],
      "name": "tokenByIndex",
      "outputs": [
        {
          "internalType": "uint256",
          "name": "",
          "type": "uint256"
        }
      ],
      "stateMutability": "view",
      "type": "function",
      "constant": true
    },
    {
      "inputs": [
        {
          "internalType": "address",
          "name": "owner",
          "type": "address"
        },
        {
          "internalType": "uint256",
          "name": "index",
          "type": "uint256"
        }
      ],
      "name": "tokenOfOwnerByIndex",
      "outputs": [
        {
          "internalType": "uint256",
          "name": "",
          "type": "uint256"
        }
      ],
      "stateMutability": "view",
      "type": "function",
      "constant": true
    },
    {
      "inputs": [],
      "name": "totalSupply",
      "outputs": [
        {
          "internalType": "uint256",
          "name": "",
          "type": "uint256"
        }
      ],
      "stateMutability": "view",
      "type": "function",
      "constant": true
    },
    {
      "inputs": [
        {
          "internalType": "address",
          "name": "_from",
          "type": "address"
        },
        {
          "internalType": "address",
          "name": "_to",
          "type": "address"
        },
        {
          "internalType": "uint256",
          "name": "_tokenId",
          "type": "uint256"
        }
      ],
      "name": "transferFrom",
      "outputs": [],
      "stateMutability": "nonpayable",
      "type": "function"
    },
    {
      "inputs": [
        {
          "internalType": "string",
          "name": "_kryptoBird",
          "type": "string"
        }
      ],
      "name": "mint",
      "outputs": [],
      "stateMutability": "nonpayable",
      "type": "function"
    }
  ],
  "bytecode": "0x60806040523480156200001157600080fd5b506040518060400160405280600a81526020017f4b727970746f62697264000000000000000000000000000000000000000000008152506040518060400160405280600681526020017f4b424952445a00000000000000000000000000000000000000000000000000008152508181620000b17f01ffc9a7a5cef8baa21ed3c5c0d7e23accb804b619e9333b597f47a0d84076e26200023e60201b60201c565b620001047f13b182f4c0e5b2efbac0efe6cf6d756c8b89f4b79c5707a043ed9ea740574ee97f7feaf19471f34a12a7eaf32d5f3090aa2260ea8624dc8a138e74e0bf0f623076186200023e60201b60201c565b81600190816200011591906200058f565b5080600290816200012791906200058f565b505050620001c17f8c51fd5fcf1f456ec4eb0f32f68d83471264fe082fac12bcbfd2fa4be9eed6c77f22c82707ba960a14c7592ffb6b8cfaa073fed0048a84cc7fa41f6b5bd8e7f2e47f7c1c4246af5561407c5193d0f67e68e23182a8f219fba25cf69514dfbf96f61c7f8a7e378434598edc36d108689a030cbc9d7d465de4f74c71bae1028eed6a881b1818186200023e60201b60201c565b620002367f6da5e1284143cdd2d15038a59bde3be031250f00291d64494c12d967b3a4e0c37fcc64ae0e2d0f6ba253763eeab8d078580edbe293d2a68e06908be8112a6bbaaa7f8230223f691b981717299fae9549350a0d894555723531f02108b1f522c1a79718186200023e60201b60201c565b5050620006f9565b63ffffffff60e01b817bffffffffffffffffffffffffffffffffffffffffffffffffffffffff191603620002a9576040517f08c379a0000000000000000000000000000000000000000000000000000000008152600401620002a090620006d7565b60405180910390fd5b6001600080837bffffffffffffffffffffffffffffffffffffffffffffffffffffffff19167bffffffffffffffffffffffffffffffffffffffffffffffffffffffff1916815260200190815260200160002060006101000a81548160ff02191690831515021790555050565b600081519050919050565b7f4e487b7100000000000000000000000000000000000000000000000000000000600052604160045260246000fd5b7f4e487b7100000000000000000000000000000000000000000000000000000000600052602260045260246000fd5b600060028204905060018216806200039757607f821691505b602082108103620003ad57620003ac6200034f565b5b50919050565b60008190508160005260206000209050919050565b60006020601f8301049050919050565b600082821b905092915050565b600060088302620004177fffffffffffffffffffffffffffffffffffffffffffffffffffffffffffffffff82620003d8565b620004238683620003d8565b95508019841693508086168417925050509392505050565b6000819050919050565b6000819050919050565b6000620004706200046a62000464846200043b565b62000445565b6200043b565b9050919050565b6000819050919050565b6200048c836200044f565b620004a46200049b8262000477565b848454620003e5565b825550505050565b600090565b620004bb620004ac565b620004c881848462000481565b505050565b5b81811015620004f057620004e4600082620004b1565b600181019050620004ce565b5050565b601f8211156200053f576200050981620003b3565b6200051484620003c8565b8101602085101562000524578190505b6200053c6200053385620003c8565b830182620004cd565b50505b505050565b600082821c905092915050565b6000620005646000198460080262000544565b1980831691505092915050565b60006200057f838362000551565b9150826002028217905092915050565b6200059a8262000315565b67ffffffffffffffff811115620005b657620005b562000320565b5b620005c282546200037e565b620005cf828285620004f4565b600060209050601f831160018114620006075760008415620005f2578287015190505b620005fe858262000571565b8655506200066e565b601f1984166200061786620003b3565b60005b8281101562000641578489015182556001820191506020850194506020810190506200061a565b868310156200066157848901516200065d601f89168262000551565b8355505b6001600288020188555050505b505050505050565b600082825260208201905092915050565b7f4552433136353a20496e76616c696420496e7465726661636500000000000000600082015250565b6000620006bf60198362000676565b9150620006cc8262000687565b602082019050919050565b60006020820190508181036000830152620006f281620006b0565b9050919050565b6121dd80620007096000396000f3fe608060405234801561001057600080fd5b50600436106100ea5760003560e01c80634f6ccce71161008c5780638b1ccaee116100665780638b1ccaee1461026f57806393ab6e561461028d57806395d89b41146102bd578063d85d3d27146102db576100ea565b80634f6ccce7146101df5780636352211e1461020f57806370a082311461023f576100ea565b8063095ea7b3116100c8578063095ea7b31461015957806318160ddd1461017557806323b872dd146101935780632f745c59146101af576100ea565b806301ffc9a7146100ef578063068417d91461011f57806306fdde031461013b575b600080fd5b61010960048036038101906101049190611221565b6102f7565b6040516101169190611269565b60405180910390f35b61013960048036038101906101349190611221565b61035e565b005b610143610432565b604051610150919061131d565b60405180910390f35b610173600480360381019061016e91906113d3565b6104c4565b005b61017d61065f565b60405161018a9190611422565b60405180910390f35b6101ad60048036038101906101a8919061143d565b61066c565b005b6101c960048036038101906101c491906113d3565b61068f565b6040516101d69190611422565b60405180910390f35b6101f960048036038101906101f49190611490565b61073f565b6040516102069190611422565b60405180910390f35b61022960048036038101906102249190611490565b6107b0565b60405161023691906114cc565b60405180910390f35b610259600480360381019061025491906114e7565b610861565b6040516102669190611422565b60405180910390f35b610277610918565b6040516102849190611523565b60405180910390f35b6102a760048036038101906102a29190611490565b610940565b6040516102b4919061131d565b60405180910390f35b6102c56109ec565b6040516102d2919061131d565b60405180910390f35b6102f560048036038101906102f09190611673565b610a7e565b005b6000806000837bffffffffffffffffffffffffffffffffffffffffffffffffffffffff19167bffffffffffffffffffffffffffffffffffffffffffffffffffffffff1916815260200190815260200160002060009054906101000a900460ff169050919050565b63ffffffff60e01b817bffffffffffffffffffffffffffffffffffffffffffffffffffffffff1916036103c6576040517f08c379a00000000000000000000000000000000000000000000000000000000081526004016103bd90611708565b60405180910390fd5b6001600080837bffffffffffffffffffffffffffffffffffffffffffffffffffffffff19167bffffffffffffffffffffffffffffffffffffffffffffffffffffffff1916815260200190815260200160002060006101000a81548160ff02191690831515021790555050565b60606001805461044190611757565b80601f016020809104026020016040519081016040528092919081815260200182805461046d90611757565b80156104ba5780601f1061048f576101008083540402835291602001916104ba565b820191906000526020600020905b81548152906001019060200180831161049d57829003601f168201915b5050505050905090565b60006104cf826107b0565b90508073ffffffffffffffffffffffffffffffffffffffff168373ffffffffffffffffffffffffffffffffffffffff160361053f576040517f08c379a0000000000000000000000000000000000000000000000000000000008152600401610536906117fa565b60405180910390fd5b8073ffffffffffffffffffffffffffffffffffffffff163373ffffffffffffffffffffffffffffffffffffffff16146105ad576040517f08c379a00000000000000000000000000000000000000000000000000000000081526004016105a49061188c565b60405180910390fd5b826005600084815260200190815260200160002060006101000a81548173ffffffffffffffffffffffffffffffffffffffff021916908373ffffffffffffffffffffffffffffffffffffffff160217905550818373ffffffffffffffffffffffffffffffffffffffff168273ffffffffffffffffffffffffffffffffffffffff167f8c5be1e5ebec7d5bd14f71427d1e84f3dd0314c0f7b2291e5b200ac8c7c3b92560405160405180910390a4505050565b6000600780549050905090565b6106763382610b80565b61067f57600080fd5b61068a838383610c0f565b505050565b600061069a83610861565b82106106db576040517f08c379a00000000000000000000000000000000000000000000000000000000081526004016106d29061191e565b60405180910390fd5b600960008473ffffffffffffffffffffffffffffffffffffffff1673ffffffffffffffffffffffffffffffffffffffff168152602001908152602001600020828154811061072c5761072b61193e565b5b9060005260206000200154905092915050565b600061074961065f565b821061078a576040517f08c379a0000000000000000000000000000000000000000000000000000000008152600401610781906119df565b60405180910390fd5b6007828154811061079e5761079d61193e565b5b90600052602060002001549050919050565b6000806003600084815260200190815260200160002060009054906101000a900473ffffffffffffffffffffffffffffffffffffffff169050600073ffffffffffffffffffffffffffffffffffffffff168173ffffffffffffffffffffffffffffffffffffffff1603610858576040517f08c379a000000000000000000000000000000000000000000000000000000000815260040161084f90611a71565b60405180910390fd5b80915050919050565b60008073ffffffffffffffffffffffffffffffffffffffff168273ffffffffffffffffffffffffffffffffffffffff16036108d1576040517f08c379a00000000000000000000000000000000000000000000000000000000081526004016108c890611b03565b60405180910390fd5b600460008373ffffffffffffffffffffffffffffffffffffffff1673ffffffffffffffffffffffffffffffffffffffff168152602001908152602001600020549050919050565b60007f01ffc9a7a5cef8baa21ed3c5c0d7e23accb804b619e9333b597f47a0d84076e2905090565b600b818154811061095057600080fd5b90600052602060002001600091509050805461096b90611757565b80601f016020809104026020016040519081016040528092919081815260200182805461099790611757565b80156109e45780601f106109b9576101008083540402835291602001916109e4565b820191906000526020600020905b8154815290600101906020018083116109c757829003601f168201915b505050505081565b6060600280546109fb90611757565b80601f0160208091040260200160405190810160405280929190818152602001828054610a2790611757565b8015610a745780601f10610a4957610100808354040283529160200191610a74565b820191906000526020600020905b815481529060010190602001808311610a5757829003601f168201915b5050505050905090565b60001515600c82604051610a929190611b5f565b908152602001604051809103902060009054906101000a900460ff16151514610af0576040517f08c379a0000000000000000000000000000000000000000000000000000000008152600401610ae790611bc2565b60405180910390fd5b600b81908060018154018082558091505060019003906000526020600020016000909190919091509081610b249190611d8e565b5060006001600b80549050610b399190611e8f565b9050610b453382610e54565b6001600c83604051610b579190611b5f565b908152602001604051809103902060006101000a81548160ff0219169083151502179055505050565b6000610b8b82610e75565b610bca576040517f08c379a0000000000000000000000000000000000000000000000000000000008152600401610bc190611f0f565b60405180910390fd5b6000610bd5836107b0565b90508073ffffffffffffffffffffffffffffffffffffffff168473ffffffffffffffffffffffffffffffffffffffff161491505092915050565b600073ffffffffffffffffffffffffffffffffffffffff168273ffffffffffffffffffffffffffffffffffffffff1603610c7e576040517f08c379a0000000000000000000000000000000000000000000000000000000008152600401610c7590611fa1565b60405180910390fd5b8273ffffffffffffffffffffffffffffffffffffffff16610c9e826107b0565b73ffffffffffffffffffffffffffffffffffffffff1614610cf4576040517f08c379a0000000000000000000000000000000000000000000000000000000008152600401610ceb90612033565b60405180910390fd5b6001600460008573ffffffffffffffffffffffffffffffffffffffff1673ffffffffffffffffffffffffffffffffffffffff1681526020019081526020016000206000828254610d449190611e8f565b925050819055506001600460008473ffffffffffffffffffffffffffffffffffffffff1673ffffffffffffffffffffffffffffffffffffffff1681526020019081526020016000206000828254610d9b9190612053565b92505081905550816003600083815260200190815260200160002060006101000a81548173ffffffffffffffffffffffffffffffffffffffff021916908373ffffffffffffffffffffffffffffffffffffffff160217905550808273ffffffffffffffffffffffffffffffffffffffff168473ffffffffffffffffffffffffffffffffffffffff167fddf252ad1be2c89b69c2b068fc378daa952ba7f163c4a11628f55a4df523b3ef60405160405180910390a4505050565b610e5e8282610ee7565b610e67816110a8565b610e7182826110f1565b5050565b6000806003600084815260200190815260200160002060009054906101000a900473ffffffffffffffffffffffffffffffffffffffff169050600073ffffffffffffffffffffffffffffffffffffffff168173ffffffffffffffffffffffffffffffffffffffff161415915050919050565b600073ffffffffffffffffffffffffffffffffffffffff168273ffffffffffffffffffffffffffffffffffffffff1603610f56576040517f08c379a0000000000000000000000000000000000000000000000000000000008152600401610f4d9061211b565b60405180910390fd5b610f5f81610e75565b15610f9f576040517f08c379a0000000000000000000000000000000000000000000000000000000008152600401610f9690612187565b60405180910390fd5b816003600083815260200190815260200160002060006101000a81548173ffffffffffffffffffffffffffffffffffffffff021916908373ffffffffffffffffffffffffffffffffffffffff1602179055506001600460008473ffffffffffffffffffffffffffffffffffffffff1673ffffffffffffffffffffffffffffffffffffffff16815260200190815260200160002060008282546110419190612053565b92505081905550808273ffffffffffffffffffffffffffffffffffffffff16600073ffffffffffffffffffffffffffffffffffffffff167fddf252ad1be2c89b69c2b068fc378daa952ba7f163c4a11628f55a4df523b3ef60405160405180910390a45050565b6007805490506008600083815260200190815260200160002081905550600781908060018154018082558091505060019003906000526020600020016000909190919091505550565b600960008373ffffffffffffffffffffffffffffffffffffffff1673ffffffffffffffffffffffffffffffffffffffff16815260200190815260200160002080549050600a600083815260200190815260200160002081905550600960008373ffffffffffffffffffffffffffffffffffffffff1673ffffffffffffffffffffffffffffffffffffffff1681526020019081526020016000208190806001815401808255809150506001900390600052602060002001600090919091909150555050565b6000604051905090565b600080fd5b600080fd5b60007fffffffff0000000000000000000000000000000000000000000000000000000082169050919050565b6111fe816111c9565b811461120957600080fd5b50565b60008135905061121b816111f5565b92915050565b600060208284031215611237576112366111bf565b5b60006112458482850161120c565b91505092915050565b60008115159050919050565b6112638161124e565b82525050565b600060208201905061127e600083018461125a565b92915050565b600081519050919050565b600082825260208201905092915050565b60005b838110156112be5780820151818401526020810190506112a3565b838111156112cd576000848401525b50505050565b6000601f19601f8301169050919050565b60006112ef82611284565b6112f9818561128f565b93506113098185602086016112a0565b611312816112d3565b840191505092915050565b6000602082019050818103600083015261133781846112e4565b905092915050565b600073ffffffffffffffffffffffffffffffffffffffff82169050919050565b600061136a8261133f565b9050919050565b61137a8161135f565b811461138557600080fd5b50565b60008135905061139781611371565b92915050565b6000819050919050565b6113b08161139d565b81146113bb57600080fd5b50565b6000813590506113cd816113a7565b92915050565b600080604083850312156113ea576113e96111bf565b5b60006113f885828601611388565b9250506020611409858286016113be565b9150509250929050565b61141c8161139d565b82525050565b60006020820190506114376000830184611413565b92915050565b600080600060608486031215611456576114556111bf565b5b600061146486828701611388565b935050602061147586828701611388565b9250506040611486868287016113be565b9150509250925092565b6000602082840312156114a6576114a56111bf565b5b60006114b4848285016113be565b91505092915050565b6114c68161135f565b82525050565b60006020820190506114e160008301846114bd565b92915050565b6000602082840312156114fd576114fc6111bf565b5b600061150b84828501611388565b91505092915050565b61151d816111c9565b82525050565b60006020820190506115386000830184611514565b92915050565b600080fd5b600080fd5b7f4e487b7100000000000000000000000000000000000000000000000000000000600052604160045260246000fd5b611580826112d3565b810181811067ffffffffffffffff8211171561159f5761159e611548565b5b80604052505050565b60006115b26111b5565b90506115be8282611577565b919050565b600067ffffffffffffffff8211156115de576115dd611548565b5b6115e7826112d3565b9050602081019050919050565b82818337600083830152505050565b6000611616611611846115c3565b6115a8565b90508281526020810184848401111561163257611631611543565b5b61163d8482856115f4565b509392505050565b600082601f83011261165a5761165961153e565b5b813561166a848260208601611603565b91505092915050565b600060208284031215611689576116886111bf565b5b600082013567ffffffffffffffff8111156116a7576116a66111c4565b5b6116b384828501611645565b91505092915050565b7f4552433136353a20496e76616c696420496e7465726661636500000000000000600082015250565b60006116f260198361128f565b91506116fd826116bc565b602082019050919050565b60006020820190508181036000830152611721816116e5565b9050919050565b7f4e487b7100000000000000000000000000000000000000000000000000000000600052602260045260246000fd5b6000600282049050600182168061176f57607f821691505b60208210810361178257611781611728565b5b50919050565b7f4572726f72202d20617070726f76616c20746f2063757272656e74206f776e6560008201527f7200000000000000000000000000000000000000000000000000000000000000602082015250565b60006117e460218361128f565b91506117ef82611788565b604082019050919050565b60006020820190508181036000830152611813816117d7565b9050919050565b7f43757272656e742063616c6c6572206973206e6f7420746865206f776e65722060008201527f6f662074686520746f6b656e0000000000000000000000000000000000000000602082015250565b6000611876602c8361128f565b91506118818261181a565b604082019050919050565b600060208201905081810360008301526118a581611869565b9050919050565b7f537065636966696564206f776e657220496e64657820446f6573206e6f74204560008201527f7869737400000000000000000000000000000000000000000000000000000000602082015250565b600061190860248361128f565b9150611913826118ac565b604082019050919050565b60006020820190508181036000830152611937816118fb565b9050919050565b7f4e487b7100000000000000000000000000000000000000000000000000000000600052603260045260246000fd5b7f53706563696669656420676c6f62616c20496e64657820446f6573206e6f742060008201527f4578697374000000000000000000000000000000000000000000000000000000602082015250565b60006119c960258361128f565b91506119d48261196d565b604082019050919050565b600060208201905081810360008301526119f8816119bc565b9050919050565b7f4f776e657220646f6573206e6f7420657869737420666f72207468652067697660008201527f656e20746f6b656e204944000000000000000000000000000000000000000000602082015250565b6000611a5b602b8361128f565b9150611a66826119ff565b604082019050919050565b60006020820190508181036000830152611a8a81611a4e565b9050919050565b7f696e76616c6964206f776e6572206164647265737320666f7220746f6b656e2060008201527f7175657279000000000000000000000000000000000000000000000000000000602082015250565b6000611aed60258361128f565b9150611af882611a91565b604082019050919050565b60006020820190508181036000830152611b1c81611ae0565b9050919050565b600081905092915050565b6000611b3982611284565b611b438185611b23565b9350611b538185602086016112a0565b80840191505092915050565b6000611b6b8284611b2e565b915081905092915050565b7f4b727970746f6269726420616c72656164792065786973747300000000000000600082015250565b6000611bac60198361128f565b9150611bb782611b76565b602082019050919050565b60006020820190508181036000830152611bdb81611b9f565b9050919050565b60008190508160005260206000209050919050565b60006020601f8301049050919050565b600082821b905092915050565b600060088302611c447fffffffffffffffffffffffffffffffffffffffffffffffffffffffffffffffff82611c07565b611c4e8683611c07565b95508019841693508086168417925050509392505050565b6000819050919050565b6000611c8b611c86611c818461139d565b611c66565b61139d565b9050919050565b6000819050919050565b611ca583611c70565b611cb9611cb182611c92565b848454611c14565b825550505050565b600090565b611cce611cc1565b611cd9818484611c9c565b505050565b5b81811015611cfd57611cf2600082611cc6565b600181019050611cdf565b5050565b601f821115611d4257611d1381611be2565b611d1c84611bf7565b81016020851015611d2b578190505b611d3f611d3785611bf7565b830182611cde565b50505b505050565b600082821c905092915050565b6000611d6560001984600802611d47565b1980831691505092915050565b6000611d7e8383611d54565b9150826002028217905092915050565b611d9782611284565b67ffffffffffffffff811115611db057611daf611548565b5b611dba8254611757565b611dc5828285611d01565b600060209050601f831160018114611df85760008415611de6578287015190505b611df08582611d72565b865550611e58565b601f198416611e0686611be2565b60005b82811015611e2e57848901518255600182019150602085019450602081019050611e09565b86831015611e4b5784890151611e47601f891682611d54565b8355505b6001600288020188555050505b505050505050565b7f4e487b7100000000000000000000000000000000000000000000000000000000600052601160045260246000fd5b6000611e9a8261139d565b9150611ea58361139d565b925082821015611eb857611eb7611e60565b5b828203905092915050565b7f746f6b656e20646f6573206e6f74206578697374000000000000000000000000600082015250565b6000611ef960148361128f565b9150611f0482611ec3565b602082019050919050565b60006020820190508181036000830152611f2881611eec565b9050919050565b7f4572726f72202d20455243373231205472616e7366657220746f20746865207a60008201527f65726f2061646472657373000000000000000000000000000000000000000000602082015250565b6000611f8b602b8361128f565b9150611f9682611f2f565b604082019050919050565b60006020820190508181036000830152611fba81611f7e565b9050919050565b7f547279696e6720746f207472616e73666572206120746f6b656e20746865206160008201527f64647265737320646f6573206e6f74206f776e21000000000000000000000000602082015250565b600061201d60348361128f565b915061202882611fc1565b604082019050919050565b6000602082019050818103600083015261204c81612010565b9050919050565b600061205e8261139d565b91506120698361139d565b9250827fffffffffffffffffffffffffffffffffffffffffffffffffffffffffffffffff0382111561209e5761209d611e60565b5b828201905092915050565b7f4552433732313a206d696e7420746f20616464726573732030206973206e6f7460008201527f20616c6c6f776564000000000000000000000000000000000000000000000000602082015250565b600061210560288361128f565b9150612110826120a9565b604082019050919050565b60006020820190508181036000830152612134816120f8565b9050919050565b7f4552433732313a20746f6b656e20616c72656164792065786973747300000000600082015250565b6000612171601c8361128f565b915061217c8261213b565b602082019050919050565b600060208201905081810360008301526121a081612164565b905091905056fea2646970667358221220716c6a86568f3f7a964afedabaa2c3057da352067a1ceb90591dc13dd0292ef164736f6c634300080f0033",
  "immutableReferences": {},
  "source": "// SPDX-License-Identifier: MIT\r\npragma solidity ^0.8.0;\r\n\r\nimport './ERC721Connector.sol';\r\n\r\ncontract KryptoBird is ERC721Connector\r\n{\r\n    string[] public kryptoBirdz;\r\n    mapping(string=>bool) _kryptoBirdzExists;\r\n    constructor () ERC721Connector(\"Kryptobird\",\"KBIRDZ\")\r\n    {\r\n\r\n    }\r\n\r\n    function mint(string memory _kryptoBird) public\r\n    {\r\n        require(_kryptoBirdzExists[_kryptoBird]==false,\"Kryptobird already exists\");\r\n        kryptoBirdz.push(_kryptoBird);\r\n        uint _id = uint(kryptoBirdz.length - 1);\r\n        _mint(msg.sender,_id);\r\n        _kryptoBirdzExists[_kryptoBird] = true;\r\n    }\r\n} ",
  "sourcePath": "C:\\Users\\Sarthak\\Documents\\Web Development\\NFT Marketplace\\nft-marketplace\\contracts\\KryptoBirdz.sol",
  "compiler": {
    "name": "solc",
    "version": "0.8.15+commit.e14f2714.Emscripten.clang"
  },
  "schemaVersion": "3.4.7",
  "updatedAt": "2022-07-25T15:27:58.524Z",
  "networkType": "ethereum",
  "devdoc": {
    "kind": "dev",
    "methods": {
      "balanceOf(address)": {
        "details": "NFTs assigned to the zero address are considered invalid, and this  function throws for queries about the zero address.",
        "params": {
          "_owner": "An address for whom to query the balance"
        },
        "returns": {
          "_0": "The number of NFTs owned by `_owner`, possibly zero"
        }
      },
      "ownerOf(uint256)": {
        "details": "NFTs assigned to zero address are considered invalid, and queries  about them do throw.",
        "params": {
          "_tokenId": "The identifier for an NFT"
        },
        "returns": {
          "_0": "The address of the owner of the NFT"
        }
      },
      "totalSupply()": {
        "returns": {
          "_0": "A count of valid NFTs tracked by this contract, where each one of  them has an assigned and queryable owner not equal to the zero address"
        }
      },
      "transferFrom(address,address,uint256)": {
        "details": "Throws unless `msg.sender` is the current owner, an authorized  operator, or the approved address for this NFT. Throws if `_from` is  not the current owner. Throws if `_to` is the zero address. Throws if  `_tokenId` is not a valid NFT.",
        "params": {
          "_from": "The current owner of the NFT",
          "_to": "The new owner",
          "_tokenId": "The NFT to transfer"
        }
      }
    },
    "version": 1
  },
  "userdoc": {
    "kind": "user",
    "methods": {
      "balanceOf(address)": {
        "notice": "Count all NFTs assigned to an owner"
      },
      "name()": {
        "notice": "A descriptive name for a collection of NFTs in this contract"
      },
      "ownerOf(uint256)": {
        "notice": "Find the owner of an NFT"
      },
      "symbol()": {
        "notice": "An abbreviated name for NFTs in this contract"
      },
      "totalSupply()": {
        "notice": "Count NFTs tracked by this contract"
      },
      "transferFrom(address,address,uint256)": {
        "notice": "Transfer ownership of an NFT -- THE CALLER IS RESPONSIBLE  TO CONFIRM THAT `_to` IS CAPABLE OF RECEIVING NFTS OR ELSE  THEY MAY BE PERMANENTLY LOST"
      }
    },
    "version": 1
  }
}