{
  "contractName": "KryptoBird",
  "abi": [
    {
      "inputs": [],
      "stateMutability": "nonpayable",
      "type": "constructor"
    },
    {
      "anonymous": false,
      "inputs": [
        {
          "indexed": true,
          "internalType": "address",
          "name": "from",
          "type": "address"
        },
        {
          "indexed": true,
          "internalType": "address",
          "name": "to",
          "type": "address"
        },
        {
          "indexed": true,
          "internalType": "uint256",
          "name": "tokenId",
          "type": "uint256"
        }
      ],
      "name": "Transfer",
      "type": "event"
    },
    {
      "inputs": [
        {
          "internalType": "address",
          "name": "_owner",
          "type": "address"
        }
      ],
      "name": "balanceOf",
      "outputs": [
        {
          "internalType": "uint256",
          "name": "",
          "type": "uint256"
        }
      ],
      "stateMutability": "view",
      "type": "function",
      "constant": true
    },
    {
      "inputs": [
        {
          "internalType": "uint256",
          "name": "",
          "type": "uint256"
        }
      ],
      "name": "kryptoBirdz",
      "outputs": [
        {
          "internalType": "string",
          "name": "",
          "type": "string"
        }
      ],
      "stateMutability": "view",
      "type": "function",
      "constant": true
    },
    {
      "inputs": [],
      "name": "name",
      "outputs": [
        {
          "internalType": "string",
          "name": "",
          "type": "string"
        }
      ],
      "stateMutability": "view",
      "type": "function",
      "constant": true
    },
    {
      "inputs": [
        {
          "internalType": "uint256",
          "name": "_tokenId",
          "type": "uint256"
        }
      ],
      "name": "ownerOf",
      "outputs": [
        {
          "internalType": "address",
          "name": "",
          "type": "address"
        }
      ],
      "stateMutability": "view",
      "type": "function",
      "constant": true
    },
    {
      "inputs": [],
      "name": "symbol",
      "outputs": [
        {
          "internalType": "string",
          "name": "",
          "type": "string"
        }
      ],
      "stateMutability": "view",
      "type": "function",
      "constant": true
    },
    {
      "inputs": [],
      "name": "totalSupply",
      "outputs": [
        {
          "internalType": "uint256",
          "name": "",
          "type": "uint256"
        }
      ],
      "stateMutability": "view",
      "type": "function",
      "constant": true
    },
    {
      "inputs": [
        {
          "internalType": "string",
          "name": "_kryptoBird",
          "type": "string"
        }
      ],
      "name": "mint",
      "outputs": [],
      "stateMutability": "nonpayable",
      "type": "function"
    }
  ],
  "bytecode": "0x60806040523480156200001157600080fd5b506040518060400160405280600a81526020017f4b727970746f62697264000000000000000000000000000000000000000000008152506040518060400160405280600681526020017f4b424952445a00000000000000000000000000000000000000000000000000008152508181816000908162000091919062000328565b508060019081620000a3919062000328565b50505050506200040f565b600081519050919050565b7f4e487b7100000000000000000000000000000000000000000000000000000000600052604160045260246000fd5b7f4e487b7100000000000000000000000000000000000000000000000000000000600052602260045260246000fd5b600060028204905060018216806200013057607f821691505b602082108103620001465762000145620000e8565b5b50919050565b60008190508160005260206000209050919050565b60006020601f8301049050919050565b600082821b905092915050565b600060088302620001b07fffffffffffffffffffffffffffffffffffffffffffffffffffffffffffffffff8262000171565b620001bc868362000171565b95508019841693508086168417925050509392505050565b6000819050919050565b6000819050919050565b60006200020962000203620001fd84620001d4565b620001de565b620001d4565b9050919050565b6000819050919050565b6200022583620001e8565b6200023d620002348262000210565b8484546200017e565b825550505050565b600090565b6200025462000245565b620002618184846200021a565b505050565b5b8181101562000289576200027d6000826200024a565b60018101905062000267565b5050565b601f821115620002d857620002a2816200014c565b620002ad8462000161565b81016020851015620002bd578190505b620002d5620002cc8562000161565b83018262000266565b50505b505050565b600082821c905092915050565b6000620002fd60001984600802620002dd565b1980831691505092915050565b6000620003188383620002ea565b9150826002028217905092915050565b6200033382620000ae565b67ffffffffffffffff8111156200034f576200034e620000b9565b5b6200035b825462000117565b620003688282856200028d565b600060209050601f831160018114620003a057600084156200038b578287015190505b6200039785826200030a565b86555062000407565b601f198416620003b0866200014c565b60005b82811015620003da57848901518255600182019150602085019450602081019050620003b3565b86831015620003fa5784890151620003f6601f891682620002ea565b8355505b6001600288020188555050505b505050505050565b611282806200041f6000396000f3fe608060405234801561001057600080fd5b506004361061007d5760003560e01c806370a082311161005b57806370a08231146100ee57806393ab6e561461011e57806395d89b411461014e578063d85d3d271461016c5761007d565b806306fdde031461008257806318160ddd146100a05780636352211e146100be575b600080fd5b61008a610188565b60405161009791906108de565b60405180910390f35b6100a861021a565b6040516100b59190610919565b60405180910390f35b6100d860048036038101906100d39190610974565b610227565b6040516100e591906109e2565b60405180910390f35b61010860048036038101906101039190610a29565b6102d8565b6040516101159190610919565b60405180910390f35b61013860048036038101906101339190610974565b61038f565b60405161014591906108de565b60405180910390f35b61015661043b565b60405161016391906108de565b60405180910390f35b61018660048036038101906101819190610b8b565b6104cd565b005b60606000805461019790610c03565b80601f01602080910402602001604051908101604052809291908181526020018280546101c390610c03565b80156102105780601f106101e557610100808354040283529160200191610210565b820191906000526020600020905b8154815290600101906020018083116101f357829003601f168201915b5050505050905090565b6000600480549050905090565b6000806002600084815260200190815260200160002060009054906101000a900473ffffffffffffffffffffffffffffffffffffffff169050600073ffffffffffffffffffffffffffffffffffffffff168173ffffffffffffffffffffffffffffffffffffffff16036102cf576040517f08c379a00000000000000000000000000000000000000000000000000000000081526004016102c690610ca6565b60405180910390fd5b80915050919050565b60008073ffffffffffffffffffffffffffffffffffffffff168273ffffffffffffffffffffffffffffffffffffffff1603610348576040517f08c379a000000000000000000000000000000000000000000000000000000000815260040161033f90610d38565b60405180910390fd5b600360008373ffffffffffffffffffffffffffffffffffffffff1673ffffffffffffffffffffffffffffffffffffffff168152602001908152602001600020549050919050565b6008818154811061039f57600080fd5b9060005260206000200160009150905080546103ba90610c03565b80601f01602080910402602001604051908101604052809291908181526020018280546103e690610c03565b80156104335780601f1061040857610100808354040283529160200191610433565b820191906000526020600020905b81548152906001019060200180831161041657829003601f168201915b505050505081565b60606001805461044a90610c03565b80601f016020809104026020016040519081016040528092919081815260200182805461047690610c03565b80156104c35780601f10610498576101008083540402835291602001916104c3565b820191906000526020600020905b8154815290600101906020018083116104a657829003601f168201915b5050505050905090565b600015156009826040516104e19190610d94565b908152602001604051809103902060009054906101000a900460ff1615151461053f576040517f08c379a000000000000000000000000000000000000000000000000000000000815260040161053690610df7565b60405180910390fd5b6008819080600181540180825580915050600190039060005260206000200160009091909190915090816105739190610fc3565b506000600160088054905061058891906110c4565b905061059433826105cf565b60016009836040516105a69190610d94565b908152602001604051809103902060006101000a81548160ff0219169083151502179055505050565b6105d982826105e6565b6105e2816107a7565b5050565b600073ffffffffffffffffffffffffffffffffffffffff168273ffffffffffffffffffffffffffffffffffffffff1603610655576040517f08c379a000000000000000000000000000000000000000000000000000000000815260040161064c9061116a565b60405180910390fd5b61065e816107d3565b1561069e576040517f08c379a0000000000000000000000000000000000000000000000000000000008152600401610695906111d6565b60405180910390fd5b816002600083815260200190815260200160002060006101000a81548173ffffffffffffffffffffffffffffffffffffffff021916908373ffffffffffffffffffffffffffffffffffffffff1602179055506001600360008473ffffffffffffffffffffffffffffffffffffffff1673ffffffffffffffffffffffffffffffffffffffff168152602001908152602001600020600082825461074091906111f6565b92505081905550808273ffffffffffffffffffffffffffffffffffffffff16600073ffffffffffffffffffffffffffffffffffffffff167fddf252ad1be2c89b69c2b068fc378daa952ba7f163c4a11628f55a4df523b3ef60405160405180910390a45050565b600481908060018154018082558091505060019003906000526020600020016000909190919091505550565b6000806002600084815260200190815260200160002060009054906101000a900473ffffffffffffffffffffffffffffffffffffffff169050600073ffffffffffffffffffffffffffffffffffffffff168173ffffffffffffffffffffffffffffffffffffffff161415915050919050565b600081519050919050565b600082825260208201905092915050565b60005b8381101561087f578082015181840152602081019050610864565b8381111561088e576000848401525b50505050565b6000601f19601f8301169050919050565b60006108b082610845565b6108ba8185610850565b93506108ca818560208601610861565b6108d381610894565b840191505092915050565b600060208201905081810360008301526108f881846108a5565b905092915050565b6000819050919050565b61091381610900565b82525050565b600060208201905061092e600083018461090a565b92915050565b6000604051905090565b600080fd5b600080fd5b61095181610900565b811461095c57600080fd5b50565b60008135905061096e81610948565b92915050565b60006020828403121561098a5761098961093e565b5b60006109988482850161095f565b91505092915050565b600073ffffffffffffffffffffffffffffffffffffffff82169050919050565b60006109cc826109a1565b9050919050565b6109dc816109c1565b82525050565b60006020820190506109f760008301846109d3565b92915050565b610a06816109c1565b8114610a1157600080fd5b50565b600081359050610a23816109fd565b92915050565b600060208284031215610a3f57610a3e61093e565b5b6000610a4d84828501610a14565b91505092915050565b600080fd5b600080fd5b7f4e487b7100000000000000000000000000000000000000000000000000000000600052604160045260246000fd5b610a9882610894565b810181811067ffffffffffffffff82111715610ab757610ab6610a60565b5b80604052505050565b6000610aca610934565b9050610ad68282610a8f565b919050565b600067ffffffffffffffff821115610af657610af5610a60565b5b610aff82610894565b9050602081019050919050565b82818337600083830152505050565b6000610b2e610b2984610adb565b610ac0565b905082815260208101848484011115610b4a57610b49610a5b565b5b610b55848285610b0c565b509392505050565b600082601f830112610b7257610b71610a56565b5b8135610b82848260208601610b1b565b91505092915050565b600060208284031215610ba157610ba061093e565b5b600082013567ffffffffffffffff811115610bbf57610bbe610943565b5b610bcb84828501610b5d565b91505092915050565b7f4e487b7100000000000000000000000000000000000000000000000000000000600052602260045260246000fd5b60006002820490506001821680610c1b57607f821691505b602082108103610c2e57610c2d610bd4565b5b50919050565b7f4f776e657220646f6573206e6f7420657869737420666f72207468652067697660008201527f656e20746f6b656e204944000000000000000000000000000000000000000000602082015250565b6000610c90602b83610850565b9150610c9b82610c34565b604082019050919050565b60006020820190508181036000830152610cbf81610c83565b9050919050565b7f696e76616c6964206f776e6572206164647265737320666f7220746f6b656e2060008201527f7175657279000000000000000000000000000000000000000000000000000000602082015250565b6000610d22602583610850565b9150610d2d82610cc6565b604082019050919050565b60006020820190508181036000830152610d5181610d15565b9050919050565b600081905092915050565b6000610d6e82610845565b610d788185610d58565b9350610d88818560208601610861565b80840191505092915050565b6000610da08284610d63565b915081905092915050565b7f4b727970746f6269726420616c72656164792065786973747300000000000000600082015250565b6000610de1601983610850565b9150610dec82610dab565b602082019050919050565b60006020820190508181036000830152610e1081610dd4565b9050919050565b60008190508160005260206000209050919050565b60006020601f8301049050919050565b600082821b905092915050565b600060088302610e797fffffffffffffffffffffffffffffffffffffffffffffffffffffffffffffffff82610e3c565b610e838683610e3c565b95508019841693508086168417925050509392505050565b6000819050919050565b6000610ec0610ebb610eb684610900565b610e9b565b610900565b9050919050565b6000819050919050565b610eda83610ea5565b610eee610ee682610ec7565b848454610e49565b825550505050565b600090565b610f03610ef6565b610f0e818484610ed1565b505050565b5b81811015610f3257610f27600082610efb565b600181019050610f14565b5050565b601f821115610f7757610f4881610e17565b610f5184610e2c565b81016020851015610f60578190505b610f74610f6c85610e2c565b830182610f13565b50505b505050565b600082821c905092915050565b6000610f9a60001984600802610f7c565b1980831691505092915050565b6000610fb38383610f89565b9150826002028217905092915050565b610fcc82610845565b67ffffffffffffffff811115610fe557610fe4610a60565b5b610fef8254610c03565b610ffa828285610f36565b600060209050601f83116001811461102d576000841561101b578287015190505b6110258582610fa7565b86555061108d565b601f19841661103b86610e17565b60005b828110156110635784890151825560018201915060208501945060208101905061103e565b86831015611080578489015161107c601f891682610f89565b8355505b6001600288020188555050505b505050505050565b7f4e487b7100000000000000000000000000000000000000000000000000000000600052601160045260246000fd5b60006110cf82610900565b91506110da83610900565b9250828210156110ed576110ec611095565b5b828203905092915050565b7f4552433732313a206d696e7420746f20616464726573732030206973206e6f7460008201527f20616c6c6f776564000000000000000000000000000000000000000000000000602082015250565b6000611154602883610850565b915061115f826110f8565b604082019050919050565b6000602082019050818103600083015261118381611147565b9050919050565b7f4552433732313a20746f6b656e20616c72656164792065786973747300000000600082015250565b60006111c0601c83610850565b91506111cb8261118a565b602082019050919050565b600060208201905081810360008301526111ef816111b3565b9050919050565b600061120182610900565b915061120c83610900565b9250827fffffffffffffffffffffffffffffffffffffffffffffffffffffffffffffffff0382111561124157611240611095565b5b82820190509291505056fea2646970667358221220304d6e1f2d532ec0abc394d70af7c19b7f72f27604583c83714ff5496ec7ea7f64736f6c634300080f0033",
  "immutableReferences": {},
  "source": "// SPDX-License-Identifier: MIT\r\npragma solidity ^0.8.0;\r\n\r\nimport './ERC721Connector.sol';\r\n\r\ncontract KryptoBird is ERC721Connector\r\n{\r\n    string[] public kryptoBirdz;\r\n    mapping(string=>bool) _kryptoBirdzExists;\r\n    constructor () ERC721Connector(\"Kryptobird\",\"KBIRDZ\")\r\n    {\r\n\r\n    }\r\n\r\n    function mint(string memory _kryptoBird) public\r\n    {\r\n        require(_kryptoBirdzExists[_kryptoBird]==false,\"Kryptobird already exists\");\r\n        kryptoBirdz.push(_kryptoBird);\r\n        uint _id = uint(kryptoBirdz.length - 1);\r\n        _mint(msg.sender,_id);\r\n        _kryptoBirdzExists[_kryptoBird] = true;\r\n    }\r\n} ",
  "sourcePath": "C:\\Users\\Sarthak\\Documents\\Web Development\\NFT Marketplace\\nft-marketplace\\contracts\\KryptoBirdz.sol",
  "compiler": {
    "name": "solc",
    "version": "0.8.15+commit.e14f2714.Emscripten.clang"
  },
  "schemaVersion": "3.4.7",
  "updatedAt": "2022-07-01T17:16:26.683Z",
  "networkType": "ethereum",
  "devdoc": {
    "kind": "dev",
    "methods": {},
    "version": 1
  },
  "userdoc": {
    "kind": "user",
    "methods": {},
    "version": 1
  }
}